{"src/CourseAuction.sol":{"CourseAuction":{"abi":[{"inputs":[{"internalType":"address","name":"_courseCertificate","type":"address"},{"internalType":"address","name":"_honeyToken","type":"address"}],"stateMutability":"nonpayable","type":"constructor"},{"anonymous":false,"inputs":[{"indexed":false,"internalType":"uint256","name":"courseId","type":"uint256"},{"indexed":false,"internalType":"uint256","name":"batchId","type":"uint256"},{"indexed":false,"internalType":"uint256","name":"startTime","type":"uint256"},{"indexed":false,"internalType":"uint256","name":"endTime","type":"uint256"},{"indexed":false,"internalType":"uint256","name":"minPrice","type":"uint256"}],"name":"AuctionCreated","type":"event"},{"anonymous":false,"inputs":[{"indexed":false,"internalType":"uint256","name":"courseId","type":"uint256"},{"indexed":false,"internalType":"uint256","name":"batchId","type":"uint256"}],"name":"AuctionFinalized","type":"event"},{"anonymous":false,"inputs":[{"indexed":false,"internalType":"uint256","name":"courseId","type":"uint256"},{"indexed":false,"internalType":"uint256","name":"batchId","type":"uint256"},{"indexed":false,"internalType":"address","name":"bidder","type":"address"},{"indexed":false,"internalType":"uint256","name":"bidTime","type":"uint256"},{"indexed":false,"internalType":"uint256","name":"amount","type":"uint256"}],"name":"BidPlaced","type":"event"},{"inputs":[{"internalType":"uint256","name":"","type":"uint256"},{"internalType":"uint256","name":"","type":"uint256"}],"name":"auctions","outputs":[{"internalType":"uint256","name":"courseId","type":"uint256"},{"internalType":"uint256","name":"batchId","type":"uint256"},{"internalType":"uint256","name":"startTime","type":"uint256"},{"internalType":"uint256","name":"endTime","type":"uint256"},{"internalType":"uint256","name":"minPrice","type":"uint256"},{"internalType":"bool","name":"isActive","type":"bool"}],"stateMutability":"view","type":"function"},{"inputs":[{"internalType":"uint256","name":"","type":"uint256"},{"internalType":"uint256","name":"","type":"uint256"},{"internalType":"uint256","name":"","type":"uint256"}],"name":"bids","outputs":[{"internalType":"address","name":"bidder","type":"address"},{"internalType":"uint256","name":"bidTime","type":"uint256"},{"internalType":"uint256","name":"amount","type":"uint256"}],"stateMutability":"view","type":"function"},{"inputs":[],"name":"courseCertificate","outputs":[{"internalType":"contract CourseCertificate","name":"","type":"address"}],"stateMutability":"view","type":"function"},{"inputs":[{"internalType":"uint256","name":"courseId","type":"uint256"},{"internalType":"uint256","name":"batchId","type":"uint256"},{"internalType":"uint256","name":"startTime","type":"uint256"},{"internalType":"uint256","name":"endTime","type":"uint256"},{"internalType":"uint256","name":"minPrice","type":"uint256"}],"name":"createAuction","outputs":[],"stateMutability":"nonpayable","type":"function"},{"inputs":[{"internalType":"uint256","name":"courseId","type":"uint256"},{"internalType":"uint256","name":"batchId","type":"uint256"}],"name":"finalizeAuction","outputs":[],"stateMutability":"nonpayable","type":"function"},{"inputs":[{"internalType":"uint256","name":"courseId","type":"uint256"},{"internalType":"uint256","name":"batchId","type":"uint256"}],"name":"getBids","outputs":[{"components":[{"internalType":"address","name":"bidder","type":"address"},{"internalType":"uint256","name":"bidTime","type":"uint256"},{"internalType":"uint256","name":"amount","type":"uint256"}],"internalType":"struct CourseAuction.Bid[]","name":"","type":"tuple[]"}],"stateMutability":"view","type":"function"},{"inputs":[],"name":"honeyToken","outputs":[{"internalType":"contract HoneyToken","name":"","type":"address"}],"stateMutability":"view","type":"function"},{"inputs":[{"internalType":"uint256","name":"courseId","type":"uint256"},{"internalType":"uint256","name":"batchId","type":"uint256"},{"internalType":"uint256","name":"amount","type":"uint256"}],"name":"placeBid","outputs":[],"stateMutability":"nonpayable","type":"function"}],"evm":{"bytecode":{"linkReferences":{},"object":"6080604052348015600f57600080fd5b5060405161112d38038061112d833981016040819052602c916077565b600080546001600160a01b039384166001600160a01b0319918216179091556001805492909316911617905560a5565b80516001600160a01b0381168114607257600080fd5b919050565b60008060408385031215608957600080fd5b609083605c565b9150609c60208401605c565b90509250929050565b611079806100b46000396000f3fe608060405234801561001057600080fd5b50600436106100885760003560e01c80638a157df31161005b5780638a157df314610105578063ca5314d814610118578063e5bff23e14610150578063fc23d5f01461016357600080fd5b8063115a93c81461008d57806329831f5d146100a25780635e62be25146100d257806386514e26146100e5575b600080fd5b6100a061009b366004610d53565b6101e2565b005b6001546100b5906001600160a01b031681565b6040516001600160a01b0390911681526020015b60405180910390f35b6100a06100e0366004610d75565b6108c3565b6100f86100f3366004610d53565b610b25565b6040516100c99190610da1565b6100a0610113366004610e09565b610bbd565b61012b610126366004610d75565b610cf9565b604080516001600160a01b0390941684526020840192909252908201526060016100c9565b6000546100b5906001600160a01b031681565b6101b3610171366004610d53565b60026020818152600093845260408085209091529183529120805460018201549282015460038301546004840154600590940154929493919290919060ff1686565b6040805196875260208701959095529385019290925260608401526080830152151560a082015260c0016100c9565b60008054604051634b7cbce960e11b8152600481018590528492916001600160a01b0316906396f979d290602401600060405180830381865afa15801561022d573d6000803e3d6000fd5b505050506040513d6000823e601f3d908101601f191682016040526102559190810190610f14565b505050509050806001600160a01b0316336001600160a01b0316146102e75760405162461bcd60e51b815260206004820152602a60248201527f4f6e6c7920636f7572736520746561636865722063616e2063616c6c2074686960448201527f732066756e6374696f6e0000000000000000000000000000000000000000000060648201526084015b60405180910390fd5b60008481526002602090815260408083208684529091529020600581015460ff166103545760405162461bcd60e51b815260206004820152601260248201527f41756374696f6e206e6f7420616374697665000000000000000000000000000060448201526064016102de565b6000858152600360209081526040808320878452909152902080546103bb5760405162461bcd60e51b815260206004820152600e60248201527f4e6f206269647320706c6163656400000000000000000000000000000000000060448201526064016102de565b60005b81546103cc90600190610fcf565b8110156105ba5760005b82546001906103e6908490610fcf565b6103f09190610fcf565b8110156105b15782610403826001610fe2565b8154811061041357610413610ff5565b90600052602060002090600302016002015483828154811061043757610437610ff5565b90600052602060002090600302016002015410156105a957600083828154811061046357610463610ff5565b600091825260209182902060408051606081018252600390930290910180546001600160a01b03168352600180820154948401949094526002015490820152915084906104b1908490610fe2565b815481106104c1576104c1610ff5565b90600052602060002090600302018483815481106104e1576104e1610ff5565b600091825260209091208254600390920201805473ffffffffffffffffffffffffffffffffffffffff19166001600160a01b0390921691909117815560018083015481830155600292830154929091019190915581908590610544908590610fe2565b8154811061055457610554610ff5565b6000918252602091829020835160039290920201805473ffffffffffffffffffffffffffffffffffffffff19166001600160a01b03909216919091178155908201516001820155604090910151600290910155505b6001016103d6565b506001016103be565b5060008054604051635d47964b60e01b815260048101899052602481018890526001600160a01b0390911690635d47964b9060440160a060405180830381865afa15801561060c573d6000803e3d6000fd5b505050506040513d601f19601f82011682018060405250810190610630919061100b565b50935050505060008280549050821061064a57825461064c565b815b905060005b8181101561071e5760005484546001600160a01b0390911690631af4e3e09086908490811061068257610682610ff5565b600091825260209091206003909102015460405160e083901b7fffffffff000000000000000000000000000000000000000000000000000000001681526001600160a01b039091166004820152602481018c9052604481018b9052606401600060405180830381600087803b1580156106fa57600080fd5b505af115801561070e573d6000803e3d6000fd5b5050600190920191506106519050565b50805b83548110156108735760015484546001600160a01b039091169063a9059cbb9086908490811061075357610753610ff5565b600091825260209091206003909102015486546001600160a01b039091169087908590811061078457610784610ff5565b60009182526020909120600260039092020101546040517fffffffff0000000000000000000000000000000000000000000000000000000060e085901b1681526001600160a01b03909216600483015260248201526044016020604051808303816000875af11580156107fb573d6000803e3d6000fd5b505050506040513d601f19601f8201168201806040525081019061081f919061104a565b61086b5760405162461bcd60e51b815260206004820152601560248201527f546f6b656e205472616e73666572206661696c6564000000000000000000000060448201526064016102de565b600101610721565b5060058401805460ff1916905560408051898152602081018990527f878175d6894f965b46049cdadea9efcc83bffb98ab4b9cb359e0c67757944778910160405180910390a15050505050505050565b60008381526002602090815260408083208584529091529020600581015460ff166109305760405162461bcd60e51b815260206004820152601560248201527f41756374696f6e206973206e6f7420616374697665000000000000000000000060448201526064016102de565b80600401548210156109845760405162461bcd60e51b815260206004820152600b60248201527f42696420746f6f206c6f7700000000000000000000000000000000000000000060448201526064016102de565b6001546040516323b872dd60e01b8152336004820152306024820152604481018490526001600160a01b03909116906323b872dd906064016020604051808303816000875af11580156109db573d6000803e3d6000fd5b505050506040513d601f19601f820116820180604052508101906109ff919061104a565b610a4b5760405162461bcd60e51b815260206004820152601560248201527f546f6b656e205472616e73666572206661696c6564000000000000000000000060448201526064016102de565b6000848152600360208181526040808420878552825280842081516060808201845233808352428387018181528487018c8152865460018082018955978c529a89902095519a909902909401805473ffffffffffffffffffffffffffffffffffffffff19166001600160a01b03909a16999099178955925193880193909355945160029096019590955581518981529283018890529082015290810191909152608081018390527f34a9aee5f476df7f218e672a92a2cb667ee9908bc59d1b2fa2b2a882f715775d9060a00160405180910390a150505050565b60008281526003602090815260408083208484528252808320805482518185028101850190935280835260609492939192909184015b82821015610bb0576000848152602090819020604080516060810182526003860290920180546001600160a01b0316835260018082015484860152600290910154918301919091529083529092019101610b5b565b5050505090505b92915050565b828211610c165760405162461bcd60e51b815260206004820152602160248201527f456e642074696d65206d7573742062652061667465722073746172742074696d6044820152606560f81b60648201526084016102de565b6040805160c08101825286815260208082018781528284018781526060840187815260808501878152600160a0870181815260008e815260028089528a82208f8352909852899020975188559451908701559151938501939093559151600384015590516004830155516005909101805491151560ff19909216919091179055517f8867cbc05eea5a895d1a2e08b969e1284f9aa3f38535dacee9b49baa35c61da790610cea9087908790879087908790948552602085019390935260408401919091526060830152608082015260a00190565b60405180910390a15050505050565b60036020528260005260406000206020528160005260406000208181548110610d2157600080fd5b60009182526020909120600390910201805460018201546002909201546001600160a01b039091169450909250905083565b60008060408385031215610d6657600080fd5b50508035926020909101359150565b600080600060608486031215610d8a57600080fd5b505081359360208301359350604090920135919050565b602080825282518282018190526000918401906040840190835b81811015610dfe5783516001600160a01b038151168452602081015160208501526040810151604085015250606083019250602084019350600181019050610dbb565b509095945050505050565b600080600080600060a08688031215610e2157600080fd5b505083359560208501359550604085013594606081013594506080013592509050565b634e487b7160e01b600052604160045260246000fd5b600082601f830112610e6b57600080fd5b815167ffffffffffffffff811115610e8557610e85610e44565b604051601f8201601f19908116603f0116810167ffffffffffffffff81118282101715610eb457610eb4610e44565b604052818152838201602001851015610ecc57600080fd5b60005b82811015610eeb57602081860181015183830182015201610ecf565b506000918101602001919091529392505050565b80518015158114610f0f57600080fd5b919050565b600080600080600060a08688031215610f2c57600080fd5b85516001600160a01b0381168114610f4357600080fd5b602087015190955067ffffffffffffffff811115610f6057600080fd5b610f6c88828901610e5a565b945050604086015167ffffffffffffffff811115610f8957600080fd5b610f9588828901610e5a565b60608801519094509250610fad905060808701610eff565b90509295509295909350565b634e487b7160e01b600052601160045260246000fd5b81810381811115610bb757610bb7610fb9565b80820180821115610bb757610bb7610fb9565b634e487b7160e01b600052603260045260246000fd5b600080600080600060a0868803121561102357600080fd5b855160208701516040880151606089015192975090955093509150610fad60808701610eff565b60006020828403121561105c57600080fd5b61106582610eff565b939250505056fea164736f6c634300081c000a","opcodes":"PUSH1 0x80 PUSH1 0x40 MSTORE CALLVALUE DUP1 ISZERO PUSH1 0xF JUMPI PUSH1 0x0 DUP1 REVERT JUMPDEST POP PUSH1 0x40 MLOAD PUSH2 0x112D CODESIZE SUB DUP1 PUSH2 0x112D DUP4 CODECOPY DUP2 ADD PUSH1 0x40 DUP2 SWAP1 MSTORE PUSH1 0x2C SWAP2 PUSH1 0x77 JUMP JUMPDEST PUSH1 0x0 DUP1 SLOAD PUSH1 0x1 PUSH1 0x1 PUSH1 0xA0 SHL SUB SWAP4 DUP5 AND PUSH1 0x1 PUSH1 0x1 PUSH1 0xA0 SHL SUB NOT SWAP2 DUP3 AND OR SWAP1 SWAP2 SSTORE PUSH1 0x1 DUP1 SLOAD SWAP3 SWAP1 SWAP4 AND SWAP2 AND OR SWAP1 SSTORE PUSH1 0xA5 JUMP JUMPDEST DUP1 MLOAD PUSH1 0x1 PUSH1 0x1 PUSH1 0xA0 SHL SUB DUP2 AND DUP2 EQ PUSH1 0x72 JUMPI PUSH1 0x0 DUP1 REVERT JUMPDEST SWAP2 SWAP1 POP JUMP JUMPDEST PUSH1 0x0 DUP1 PUSH1 0x40 DUP4 DUP6 SUB SLT ISZERO PUSH1 0x89 JUMPI PUSH1 0x0 DUP1 REVERT JUMPDEST PUSH1 0x90 DUP4 PUSH1 0x5C JUMP JUMPDEST SWAP2 POP PUSH1 0x9C PUSH1 0x20 DUP5 ADD PUSH1 0x5C JUMP JUMPDEST SWAP1 POP SWAP3 POP SWAP3 SWAP1 POP JUMP JUMPDEST PUSH2 0x1079 DUP1 PUSH2 0xB4 PUSH1 0x0 CODECOPY PUSH1 0x0 RETURN INVALID PUSH1 0x80 PUSH1 0x40 MSTORE CALLVALUE DUP1 ISZERO PUSH2 0x10 JUMPI PUSH1 0x0 DUP1 REVERT JUMPDEST POP PUSH1 0x4 CALLDATASIZE LT PUSH2 0x88 JUMPI PUSH1 0x0 CALLDATALOAD PUSH1 0xE0 SHR DUP1 PUSH4 0x8A157DF3 GT PUSH2 0x5B JUMPI DUP1 PUSH4 0x8A157DF3 EQ PUSH2 0x105 JUMPI DUP1 PUSH4 0xCA5314D8 EQ PUSH2 0x118 JUMPI DUP1 PUSH4 0xE5BFF23E EQ PUSH2 0x150 JUMPI DUP1 PUSH4 0xFC23D5F0 EQ PUSH2 0x163 JUMPI PUSH1 0x0 DUP1 REVERT JUMPDEST DUP1 PUSH4 0x115A93C8 EQ PUSH2 0x8D JUMPI DUP1 PUSH4 0x29831F5D EQ PUSH2 0xA2 JUMPI DUP1 PUSH4 0x5E62BE25 EQ PUSH2 0xD2 JUMPI DUP1 PUSH4 0x86514E26 EQ PUSH2 0xE5 JUMPI JUMPDEST PUSH1 0x0 DUP1 REVERT JUMPDEST PUSH2 0xA0 PUSH2 0x9B CALLDATASIZE PUSH1 0x4 PUSH2 0xD53 JUMP JUMPDEST PUSH2 0x1E2 JUMP JUMPDEST STOP JUMPDEST PUSH1 0x1 SLOAD PUSH2 0xB5 SWAP1 PUSH1 0x1 PUSH1 0x1 PUSH1 0xA0 SHL SUB AND DUP2 JUMP JUMPDEST PUSH1 0x40 MLOAD PUSH1 0x1 PUSH1 0x1 PUSH1 0xA0 SHL SUB SWAP1 SWAP2 AND DUP2 MSTORE PUSH1 0x20 ADD JUMPDEST PUSH1 0x40 MLOAD DUP1 SWAP2 SUB SWAP1 RETURN JUMPDEST PUSH2 0xA0 PUSH2 0xE0 CALLDATASIZE PUSH1 0x4 PUSH2 0xD75 JUMP JUMPDEST PUSH2 0x8C3 JUMP JUMPDEST PUSH2 0xF8 PUSH2 0xF3 CALLDATASIZE PUSH1 0x4 PUSH2 0xD53 JUMP JUMPDEST PUSH2 0xB25 JUMP JUMPDEST PUSH1 0x40 MLOAD PUSH2 0xC9 SWAP2 SWAP1 PUSH2 0xDA1 JUMP JUMPDEST PUSH2 0xA0 PUSH2 0x113 CALLDATASIZE PUSH1 0x4 PUSH2 0xE09 JUMP JUMPDEST PUSH2 0xBBD JUMP JUMPDEST PUSH2 0x12B PUSH2 0x126 CALLDATASIZE PUSH1 0x4 PUSH2 0xD75 JUMP JUMPDEST PUSH2 0xCF9 JUMP JUMPDEST PUSH1 0x40 DUP1 MLOAD PUSH1 0x1 PUSH1 0x1 PUSH1 0xA0 SHL SUB SWAP1 SWAP5 AND DUP5 MSTORE PUSH1 0x20 DUP5 ADD SWAP3 SWAP1 SWAP3 MSTORE SWAP1 DUP3 ADD MSTORE PUSH1 0x60 ADD PUSH2 0xC9 JUMP JUMPDEST PUSH1 0x0 SLOAD PUSH2 0xB5 SWAP1 PUSH1 0x1 PUSH1 0x1 PUSH1 0xA0 SHL SUB AND DUP2 JUMP JUMPDEST PUSH2 0x1B3 PUSH2 0x171 CALLDATASIZE PUSH1 0x4 PUSH2 0xD53 JUMP JUMPDEST PUSH1 0x2 PUSH1 0x20 DUP2 DUP2 MSTORE PUSH1 0x0 SWAP4 DUP5 MSTORE PUSH1 0x40 DUP1 DUP6 KECCAK256 SWAP1 SWAP2 MSTORE SWAP2 DUP4 MSTORE SWAP2 KECCAK256 DUP1 SLOAD PUSH1 0x1 DUP3 ADD SLOAD SWAP3 DUP3 ADD SLOAD PUSH1 0x3 DUP4 ADD SLOAD PUSH1 0x4 DUP5 ADD SLOAD PUSH1 0x5 SWAP1 SWAP5 ADD SLOAD SWAP3 SWAP5 SWAP4 SWAP2 SWAP3 SWAP1 SWAP2 SWAP1 PUSH1 0xFF AND DUP7 JUMP JUMPDEST PUSH1 0x40 DUP1 MLOAD SWAP7 DUP8 MSTORE PUSH1 0x20 DUP8 ADD SWAP6 SWAP1 SWAP6 MSTORE SWAP4 DUP6 ADD SWAP3 SWAP1 SWAP3 MSTORE PUSH1 0x60 DUP5 ADD MSTORE PUSH1 0x80 DUP4 ADD MSTORE ISZERO ISZERO PUSH1 0xA0 DUP3 ADD MSTORE PUSH1 0xC0 ADD PUSH2 0xC9 JUMP JUMPDEST PUSH1 0x0 DUP1 SLOAD PUSH1 0x40 MLOAD PUSH4 0x4B7CBCE9 PUSH1 0xE1 SHL DUP2 MSTORE PUSH1 0x4 DUP2 ADD DUP6 SWAP1 MSTORE DUP5 SWAP3 SWAP2 PUSH1 0x1 PUSH1 0x1 PUSH1 0xA0 SHL SUB AND SWAP1 PUSH4 0x96F979D2 SWAP1 PUSH1 0x24 ADD PUSH1 0x0 PUSH1 0x40 MLOAD DUP1 DUP4 SUB DUP2 DUP7 GAS STATICCALL ISZERO DUP1 ISZERO PUSH2 0x22D JUMPI RETURNDATASIZE PUSH1 0x0 DUP1 RETURNDATACOPY RETURNDATASIZE PUSH1 0x0 REVERT JUMPDEST POP POP POP POP PUSH1 0x40 MLOAD RETURNDATASIZE PUSH1 0x0 DUP3 RETURNDATACOPY PUSH1 0x1F RETURNDATASIZE SWAP1 DUP2 ADD PUSH1 0x1F NOT AND DUP3 ADD PUSH1 0x40 MSTORE PUSH2 0x255 SWAP2 SWAP1 DUP2 ADD SWAP1 PUSH2 0xF14 JUMP JUMPDEST POP POP POP POP SWAP1 POP DUP1 PUSH1 0x1 PUSH1 0x1 PUSH1 0xA0 SHL SUB AND CALLER PUSH1 0x1 PUSH1 0x1 PUSH1 0xA0 SHL SUB AND EQ PUSH2 0x2E7 JUMPI PUSH1 0x40 MLOAD PUSH3 0x461BCD PUSH1 0xE5 SHL DUP2 MSTORE PUSH1 0x20 PUSH1 0x4 DUP3 ADD MSTORE PUSH1 0x2A PUSH1 0x24 DUP3 ADD MSTORE PUSH32 0x4F6E6C7920636F7572736520746561636865722063616E2063616C6C20746869 PUSH1 0x44 DUP3 ADD MSTORE PUSH32 0x732066756E6374696F6E00000000000000000000000000000000000000000000 PUSH1 0x64 DUP3 ADD MSTORE PUSH1 0x84 ADD JUMPDEST PUSH1 0x40 MLOAD DUP1 SWAP2 SUB SWAP1 REVERT JUMPDEST PUSH1 0x0 DUP5 DUP2 MSTORE PUSH1 0x2 PUSH1 0x20 SWAP1 DUP2 MSTORE PUSH1 0x40 DUP1 DUP4 KECCAK256 DUP7 DUP5 MSTORE SWAP1 SWAP2 MSTORE SWAP1 KECCAK256 PUSH1 0x5 DUP2 ADD SLOAD PUSH1 0xFF AND PUSH2 0x354 JUMPI PUSH1 0x40 MLOAD PUSH3 0x461BCD PUSH1 0xE5 SHL DUP2 MSTORE PUSH1 0x20 PUSH1 0x4 DUP3 ADD MSTORE PUSH1 0x12 PUSH1 0x24 DUP3 ADD MSTORE PUSH32 0x41756374696F6E206E6F74206163746976650000000000000000000000000000 PUSH1 0x44 DUP3 ADD MSTORE PUSH1 0x64 ADD PUSH2 0x2DE JUMP JUMPDEST PUSH1 0x0 DUP6 DUP2 MSTORE PUSH1 0x3 PUSH1 0x20 SWAP1 DUP2 MSTORE PUSH1 0x40 DUP1 DUP4 KECCAK256 DUP8 DUP5 MSTORE SWAP1 SWAP2 MSTORE SWAP1 KECCAK256 DUP1 SLOAD PUSH2 0x3BB JUMPI PUSH1 0x40 MLOAD PUSH3 0x461BCD PUSH1 0xE5 SHL DUP2 MSTORE PUSH1 0x20 PUSH1 0x4 DUP3 ADD MSTORE PUSH1 0xE PUSH1 0x24 DUP3 ADD MSTORE PUSH32 0x4E6F206269647320706C61636564000000000000000000000000000000000000 PUSH1 0x44 DUP3 ADD MSTORE PUSH1 0x64 ADD PUSH2 0x2DE JUMP JUMPDEST PUSH1 0x0 JUMPDEST DUP2 SLOAD PUSH2 0x3CC SWAP1 PUSH1 0x1 SWAP1 PUSH2 0xFCF JUMP JUMPDEST DUP2 LT ISZERO PUSH2 0x5BA JUMPI PUSH1 0x0 JUMPDEST DUP3 SLOAD PUSH1 0x1 SWAP1 PUSH2 0x3E6 SWAP1 DUP5 SWAP1 PUSH2 0xFCF JUMP JUMPDEST PUSH2 0x3F0 SWAP2 SWAP1 PUSH2 0xFCF JUMP JUMPDEST DUP2 LT ISZERO PUSH2 0x5B1 JUMPI DUP3 PUSH2 0x403 DUP3 PUSH1 0x1 PUSH2 0xFE2 JUMP JUMPDEST DUP2 SLOAD DUP2 LT PUSH2 0x413 JUMPI PUSH2 0x413 PUSH2 0xFF5 JUMP JUMPDEST SWAP1 PUSH1 0x0 MSTORE PUSH1 0x20 PUSH1 0x0 KECCAK256 SWAP1 PUSH1 0x3 MUL ADD PUSH1 0x2 ADD SLOAD DUP4 DUP3 DUP2 SLOAD DUP2 LT PUSH2 0x437 JUMPI PUSH2 0x437 PUSH2 0xFF5 JUMP JUMPDEST SWAP1 PUSH1 0x0 MSTORE PUSH1 0x20 PUSH1 0x0 KECCAK256 SWAP1 PUSH1 0x3 MUL ADD PUSH1 0x2 ADD SLOAD LT ISZERO PUSH2 0x5A9 JUMPI PUSH1 0x0 DUP4 DUP3 DUP2 SLOAD DUP2 LT PUSH2 0x463 JUMPI PUSH2 0x463 PUSH2 0xFF5 JUMP JUMPDEST PUSH1 0x0 SWAP2 DUP3 MSTORE PUSH1 0x20 SWAP2 DUP3 SWAP1 KECCAK256 PUSH1 0x40 DUP1 MLOAD PUSH1 0x60 DUP2 ADD DUP3 MSTORE PUSH1 0x3 SWAP1 SWAP4 MUL SWAP1 SWAP2 ADD DUP1 SLOAD PUSH1 0x1 PUSH1 0x1 PUSH1 0xA0 SHL SUB AND DUP4 MSTORE PUSH1 0x1 DUP1 DUP3 ADD SLOAD SWAP5 DUP5 ADD SWAP5 SWAP1 SWAP5 MSTORE PUSH1 0x2 ADD SLOAD SWAP1 DUP3 ADD MSTORE SWAP2 POP DUP5 SWAP1 PUSH2 0x4B1 SWAP1 DUP5 SWAP1 PUSH2 0xFE2 JUMP JUMPDEST DUP2 SLOAD DUP2 LT PUSH2 0x4C1 JUMPI PUSH2 0x4C1 PUSH2 0xFF5 JUMP JUMPDEST SWAP1 PUSH1 0x0 MSTORE PUSH1 0x20 PUSH1 0x0 KECCAK256 SWAP1 PUSH1 0x3 MUL ADD DUP5 DUP4 DUP2 SLOAD DUP2 LT PUSH2 0x4E1 JUMPI PUSH2 0x4E1 PUSH2 0xFF5 JUMP JUMPDEST PUSH1 0x0 SWAP2 DUP3 MSTORE PUSH1 0x20 SWAP1 SWAP2 KECCAK256 DUP3 SLOAD PUSH1 0x3 SWAP1 SWAP3 MUL ADD DUP1 SLOAD PUSH20 0xFFFFFFFFFFFFFFFFFFFFFFFFFFFFFFFFFFFFFFFF NOT AND PUSH1 0x1 PUSH1 0x1 PUSH1 0xA0 SHL SUB SWAP1 SWAP3 AND SWAP2 SWAP1 SWAP2 OR DUP2 SSTORE PUSH1 0x1 DUP1 DUP4 ADD SLOAD DUP2 DUP4 ADD SSTORE PUSH1 0x2 SWAP3 DUP4 ADD SLOAD SWAP3 SWAP1 SWAP2 ADD SWAP2 SWAP1 SWAP2 SSTORE DUP2 SWAP1 DUP6 SWAP1 PUSH2 0x544 SWAP1 DUP6 SWAP1 PUSH2 0xFE2 JUMP JUMPDEST DUP2 SLOAD DUP2 LT PUSH2 0x554 JUMPI PUSH2 0x554 PUSH2 0xFF5 JUMP JUMPDEST PUSH1 0x0 SWAP2 DUP3 MSTORE PUSH1 0x20 SWAP2 DUP3 SWAP1 KECCAK256 DUP4 MLOAD PUSH1 0x3 SWAP3 SWAP1 SWAP3 MUL ADD DUP1 SLOAD PUSH20 0xFFFFFFFFFFFFFFFFFFFFFFFFFFFFFFFFFFFFFFFF NOT AND PUSH1 0x1 PUSH1 0x1 PUSH1 0xA0 SHL SUB SWAP1 SWAP3 AND SWAP2 SWAP1 SWAP2 OR DUP2 SSTORE SWAP1 DUP3 ADD MLOAD PUSH1 0x1 DUP3 ADD SSTORE PUSH1 0x40 SWAP1 SWAP2 ADD MLOAD PUSH1 0x2 SWAP1 SWAP2 ADD SSTORE POP JUMPDEST PUSH1 0x1 ADD PUSH2 0x3D6 JUMP JUMPDEST POP PUSH1 0x1 ADD PUSH2 0x3BE JUMP JUMPDEST POP PUSH1 0x0 DUP1 SLOAD PUSH1 0x40 MLOAD PUSH4 0x5D47964B PUSH1 0xE0 SHL DUP2 MSTORE PUSH1 0x4 DUP2 ADD DUP10 SWAP1 MSTORE PUSH1 0x24 DUP2 ADD DUP9 SWAP1 MSTORE PUSH1 0x1 PUSH1 0x1 PUSH1 0xA0 SHL SUB SWAP1 SWAP2 AND SWAP1 PUSH4 0x5D47964B SWAP1 PUSH1 0x44 ADD PUSH1 0xA0 PUSH1 0x40 MLOAD DUP1 DUP4 SUB DUP2 DUP7 GAS STATICCALL ISZERO DUP1 ISZERO PUSH2 0x60C JUMPI RETURNDATASIZE PUSH1 0x0 DUP1 RETURNDATACOPY RETURNDATASIZE PUSH1 0x0 REVERT JUMPDEST POP POP POP POP PUSH1 0x40 MLOAD RETURNDATASIZE PUSH1 0x1F NOT PUSH1 0x1F DUP3 ADD AND DUP3 ADD DUP1 PUSH1 0x40 MSTORE POP DUP2 ADD SWAP1 PUSH2 0x630 SWAP2 SWAP1 PUSH2 0x100B JUMP JUMPDEST POP SWAP4 POP POP POP POP PUSH1 0x0 DUP3 DUP1 SLOAD SWAP1 POP DUP3 LT PUSH2 0x64A JUMPI DUP3 SLOAD PUSH2 0x64C JUMP JUMPDEST DUP2 JUMPDEST SWAP1 POP PUSH1 0x0 JUMPDEST DUP2 DUP2 LT ISZERO PUSH2 0x71E JUMPI PUSH1 0x0 SLOAD DUP5 SLOAD PUSH1 0x1 PUSH1 0x1 PUSH1 0xA0 SHL SUB SWAP1 SWAP2 AND SWAP1 PUSH4 0x1AF4E3E0 SWAP1 DUP7 SWAP1 DUP5 SWAP1 DUP2 LT PUSH2 0x682 JUMPI PUSH2 0x682 PUSH2 0xFF5 JUMP JUMPDEST PUSH1 0x0 SWAP2 DUP3 MSTORE PUSH1 0x20 SWAP1 SWAP2 KECCAK256 PUSH1 0x3 SWAP1 SWAP2 MUL ADD SLOAD PUSH1 0x40 MLOAD PUSH1 0xE0 DUP4 SWAP1 SHL PUSH32 0xFFFFFFFF00000000000000000000000000000000000000000000000000000000 AND DUP2 MSTORE PUSH1 0x1 PUSH1 0x1 PUSH1 0xA0 SHL SUB SWAP1 SWAP2 AND PUSH1 0x4 DUP3 ADD MSTORE PUSH1 0x24 DUP2 ADD DUP13 SWAP1 MSTORE PUSH1 0x44 DUP2 ADD DUP12 SWAP1 MSTORE PUSH1 0x64 ADD PUSH1 0x0 PUSH1 0x40 MLOAD DUP1 DUP4 SUB DUP2 PUSH1 0x0 DUP8 DUP1 EXTCODESIZE ISZERO DUP1 ISZERO PUSH2 0x6FA JUMPI PUSH1 0x0 DUP1 REVERT JUMPDEST POP GAS CALL ISZERO DUP1 ISZERO PUSH2 0x70E JUMPI RETURNDATASIZE PUSH1 0x0 DUP1 RETURNDATACOPY RETURNDATASIZE PUSH1 0x0 REVERT JUMPDEST POP POP PUSH1 0x1 SWAP1 SWAP3 ADD SWAP2 POP PUSH2 0x651 SWAP1 POP JUMP JUMPDEST POP DUP1 JUMPDEST DUP4 SLOAD DUP2 LT ISZERO PUSH2 0x873 JUMPI PUSH1 0x1 SLOAD DUP5 SLOAD PUSH1 0x1 PUSH1 0x1 PUSH1 0xA0 SHL SUB SWAP1 SWAP2 AND SWAP1 PUSH4 0xA9059CBB SWAP1 DUP7 SWAP1 DUP5 SWAP1 DUP2 LT PUSH2 0x753 JUMPI PUSH2 0x753 PUSH2 0xFF5 JUMP JUMPDEST PUSH1 0x0 SWAP2 DUP3 MSTORE PUSH1 0x20 SWAP1 SWAP2 KECCAK256 PUSH1 0x3 SWAP1 SWAP2 MUL ADD SLOAD DUP7 SLOAD PUSH1 0x1 PUSH1 0x1 PUSH1 0xA0 SHL SUB SWAP1 SWAP2 AND SWAP1 DUP8 SWAP1 DUP6 SWAP1 DUP2 LT PUSH2 0x784 JUMPI PUSH2 0x784 PUSH2 0xFF5 JUMP JUMPDEST PUSH1 0x0 SWAP2 DUP3 MSTORE PUSH1 0x20 SWAP1 SWAP2 KECCAK256 PUSH1 0x2 PUSH1 0x3 SWAP1 SWAP3 MUL ADD ADD SLOAD PUSH1 0x40 MLOAD PUSH32 0xFFFFFFFF00000000000000000000000000000000000000000000000000000000 PUSH1 0xE0 DUP6 SWAP1 SHL AND DUP2 MSTORE PUSH1 0x1 PUSH1 0x1 PUSH1 0xA0 SHL SUB SWAP1 SWAP3 AND PUSH1 0x4 DUP4 ADD MSTORE PUSH1 0x24 DUP3 ADD MSTORE PUSH1 0x44 ADD PUSH1 0x20 PUSH1 0x40 MLOAD DUP1 DUP4 SUB DUP2 PUSH1 0x0 DUP8 GAS CALL ISZERO DUP1 ISZERO PUSH2 0x7FB JUMPI RETURNDATASIZE PUSH1 0x0 DUP1 RETURNDATACOPY RETURNDATASIZE PUSH1 0x0 REVERT JUMPDEST POP POP POP POP PUSH1 0x40 MLOAD RETURNDATASIZE PUSH1 0x1F NOT PUSH1 0x1F DUP3 ADD AND DUP3 ADD DUP1 PUSH1 0x40 MSTORE POP DUP2 ADD SWAP1 PUSH2 0x81F SWAP2 SWAP1 PUSH2 0x104A JUMP JUMPDEST PUSH2 0x86B JUMPI PUSH1 0x40 MLOAD PUSH3 0x461BCD PUSH1 0xE5 SHL DUP2 MSTORE PUSH1 0x20 PUSH1 0x4 DUP3 ADD MSTORE PUSH1 0x15 PUSH1 0x24 DUP3 ADD MSTORE PUSH32 0x546F6B656E205472616E73666572206661696C65640000000000000000000000 PUSH1 0x44 DUP3 ADD MSTORE PUSH1 0x64 ADD PUSH2 0x2DE JUMP JUMPDEST PUSH1 0x1 ADD PUSH2 0x721 JUMP JUMPDEST POP PUSH1 0x5 DUP5 ADD DUP1 SLOAD PUSH1 0xFF NOT AND SWAP1 SSTORE PUSH1 0x40 DUP1 MLOAD DUP10 DUP2 MSTORE PUSH1 0x20 DUP2 ADD DUP10 SWAP1 MSTORE PUSH32 0x878175D6894F965B46049CDADEA9EFCC83BFFB98AB4B9CB359E0C67757944778 SWAP2 ADD PUSH1 0x40 MLOAD DUP1 SWAP2 SUB SWAP1 LOG1 POP POP POP POP POP POP POP POP JUMP JUMPDEST PUSH1 0x0 DUP4 DUP2 MSTORE PUSH1 0x2 PUSH1 0x20 SWAP1 DUP2 MSTORE PUSH1 0x40 DUP1 DUP4 KECCAK256 DUP6 DUP5 MSTORE SWAP1 SWAP2 MSTORE SWAP1 KECCAK256 PUSH1 0x5 DUP2 ADD SLOAD PUSH1 0xFF AND PUSH2 0x930 JUMPI PUSH1 0x40 MLOAD PUSH3 0x461BCD PUSH1 0xE5 SHL DUP2 MSTORE PUSH1 0x20 PUSH1 0x4 DUP3 ADD MSTORE PUSH1 0x15 PUSH1 0x24 DUP3 ADD MSTORE PUSH32 0x41756374696F6E206973206E6F74206163746976650000000000000000000000 PUSH1 0x44 DUP3 ADD MSTORE PUSH1 0x64 ADD PUSH2 0x2DE JUMP JUMPDEST DUP1 PUSH1 0x4 ADD SLOAD DUP3 LT ISZERO PUSH2 0x984 JUMPI PUSH1 0x40 MLOAD PUSH3 0x461BCD PUSH1 0xE5 SHL DUP2 MSTORE PUSH1 0x20 PUSH1 0x4 DUP3 ADD MSTORE PUSH1 0xB PUSH1 0x24 DUP3 ADD MSTORE PUSH32 0x42696420746F6F206C6F77000000000000000000000000000000000000000000 PUSH1 0x44 DUP3 ADD MSTORE PUSH1 0x64 ADD PUSH2 0x2DE JUMP JUMPDEST PUSH1 0x1 SLOAD PUSH1 0x40 MLOAD PUSH4 0x23B872DD PUSH1 0xE0 SHL DUP2 MSTORE CALLER PUSH1 0x4 DUP3 ADD MSTORE ADDRESS PUSH1 0x24 DUP3 ADD MSTORE PUSH1 0x44 DUP2 ADD DUP5 SWAP1 MSTORE PUSH1 0x1 PUSH1 0x1 PUSH1 0xA0 SHL SUB SWAP1 SWAP2 AND SWAP1 PUSH4 0x23B872DD SWAP1 PUSH1 0x64 ADD PUSH1 0x20 PUSH1 0x40 MLOAD DUP1 DUP4 SUB DUP2 PUSH1 0x0 DUP8 GAS CALL ISZERO DUP1 ISZERO PUSH2 0x9DB JUMPI RETURNDATASIZE PUSH1 0x0 DUP1 RETURNDATACOPY RETURNDATASIZE PUSH1 0x0 REVERT JUMPDEST POP POP POP POP PUSH1 0x40 MLOAD RETURNDATASIZE PUSH1 0x1F NOT PUSH1 0x1F DUP3 ADD AND DUP3 ADD DUP1 PUSH1 0x40 MSTORE POP DUP2 ADD SWAP1 PUSH2 0x9FF SWAP2 SWAP1 PUSH2 0x104A JUMP JUMPDEST PUSH2 0xA4B JUMPI PUSH1 0x40 MLOAD PUSH3 0x461BCD PUSH1 0xE5 SHL DUP2 MSTORE PUSH1 0x20 PUSH1 0x4 DUP3 ADD MSTORE PUSH1 0x15 PUSH1 0x24 DUP3 ADD MSTORE PUSH32 0x546F6B656E205472616E73666572206661696C65640000000000000000000000 PUSH1 0x44 DUP3 ADD MSTORE PUSH1 0x64 ADD PUSH2 0x2DE JUMP JUMPDEST PUSH1 0x0 DUP5 DUP2 MSTORE PUSH1 0x3 PUSH1 0x20 DUP2 DUP2 MSTORE PUSH1 0x40 DUP1 DUP5 KECCAK256 DUP8 DUP6 MSTORE DUP3 MSTORE DUP1 DUP5 KECCAK256 DUP2 MLOAD PUSH1 0x60 DUP1 DUP3 ADD DUP5 MSTORE CALLER DUP1 DUP4 MSTORE TIMESTAMP DUP4 DUP8 ADD DUP2 DUP2 MSTORE DUP5 DUP8 ADD DUP13 DUP2 MSTORE DUP7 SLOAD PUSH1 0x1 DUP1 DUP3 ADD DUP10 SSTORE SWAP8 DUP13 MSTORE SWAP11 DUP10 SWAP1 KECCAK256 SWAP6 MLOAD SWAP11 SWAP1 SWAP10 MUL SWAP1 SWAP5 ADD DUP1 SLOAD PUSH20 0xFFFFFFFFFFFFFFFFFFFFFFFFFFFFFFFFFFFFFFFF NOT AND PUSH1 0x1 PUSH1 0x1 PUSH1 0xA0 SHL SUB SWAP1 SWAP11 AND SWAP10 SWAP1 SWAP10 OR DUP10 SSTORE SWAP3 MLOAD SWAP4 DUP9 ADD SWAP4 SWAP1 SWAP4 SSTORE SWAP5 MLOAD PUSH1 0x2 SWAP1 SWAP7 ADD SWAP6 SWAP1 SWAP6 SSTORE DUP2 MLOAD DUP10 DUP2 MSTORE SWAP3 DUP4 ADD DUP9 SWAP1 MSTORE SWAP1 DUP3 ADD MSTORE SWAP1 DUP2 ADD SWAP2 SWAP1 SWAP2 MSTORE PUSH1 0x80 DUP2 ADD DUP4 SWAP1 MSTORE PUSH32 0x34A9AEE5F476DF7F218E672A92A2CB667EE9908BC59D1B2FA2B2A882F715775D SWAP1 PUSH1 0xA0 ADD PUSH1 0x40 MLOAD DUP1 SWAP2 SUB SWAP1 LOG1 POP POP POP POP JUMP JUMPDEST PUSH1 0x0 DUP3 DUP2 MSTORE PUSH1 0x3 PUSH1 0x20 SWAP1 DUP2 MSTORE PUSH1 0x40 DUP1 DUP4 KECCAK256 DUP5 DUP5 MSTORE DUP3 MSTORE DUP1 DUP4 KECCAK256 DUP1 SLOAD DUP3 MLOAD DUP2 DUP6 MUL DUP2 ADD DUP6 ADD SWAP1 SWAP4 MSTORE DUP1 DUP4 MSTORE PUSH1 0x60 SWAP5 SWAP3 SWAP4 SWAP2 SWAP3 SWAP1 SWAP2 DUP5 ADD JUMPDEST DUP3 DUP3 LT ISZERO PUSH2 0xBB0 JUMPI PUSH1 0x0 DUP5 DUP2 MSTORE PUSH1 0x20 SWAP1 DUP2 SWAP1 KECCAK256 PUSH1 0x40 DUP1 MLOAD PUSH1 0x60 DUP2 ADD DUP3 MSTORE PUSH1 0x3 DUP7 MUL SWAP1 SWAP3 ADD DUP1 SLOAD PUSH1 0x1 PUSH1 0x1 PUSH1 0xA0 SHL SUB AND DUP4 MSTORE PUSH1 0x1 DUP1 DUP3 ADD SLOAD DUP5 DUP7 ADD MSTORE PUSH1 0x2 SWAP1 SWAP2 ADD SLOAD SWAP2 DUP4 ADD SWAP2 SWAP1 SWAP2 MSTORE SWAP1 DUP4 MSTORE SWAP1 SWAP3 ADD SWAP2 ADD PUSH2 0xB5B JUMP JUMPDEST POP POP POP POP SWAP1 POP JUMPDEST SWAP3 SWAP2 POP POP JUMP JUMPDEST DUP3 DUP3 GT PUSH2 0xC16 JUMPI PUSH1 0x40 MLOAD PUSH3 0x461BCD PUSH1 0xE5 SHL DUP2 MSTORE PUSH1 0x20 PUSH1 0x4 DUP3 ADD MSTORE PUSH1 0x21 PUSH1 0x24 DUP3 ADD MSTORE PUSH32 0x456E642074696D65206D7573742062652061667465722073746172742074696D PUSH1 0x44 DUP3 ADD MSTORE PUSH1 0x65 PUSH1 0xF8 SHL PUSH1 0x64 DUP3 ADD MSTORE PUSH1 0x84 ADD PUSH2 0x2DE JUMP JUMPDEST PUSH1 0x40 DUP1 MLOAD PUSH1 0xC0 DUP2 ADD DUP3 MSTORE DUP7 DUP2 MSTORE PUSH1 0x20 DUP1 DUP3 ADD DUP8 DUP2 MSTORE DUP3 DUP5 ADD DUP8 DUP2 MSTORE PUSH1 0x60 DUP5 ADD DUP8 DUP2 MSTORE PUSH1 0x80 DUP6 ADD DUP8 DUP2 MSTORE PUSH1 0x1 PUSH1 0xA0 DUP8 ADD DUP2 DUP2 MSTORE PUSH1 0x0 DUP15 DUP2 MSTORE PUSH1 0x2 DUP1 DUP10 MSTORE DUP11 DUP3 KECCAK256 DUP16 DUP4 MSTORE SWAP1 SWAP9 MSTORE DUP10 SWAP1 KECCAK256 SWAP8 MLOAD DUP9 SSTORE SWAP5 MLOAD SWAP1 DUP8 ADD SSTORE SWAP2 MLOAD SWAP4 DUP6 ADD SWAP4 SWAP1 SWAP4 SSTORE SWAP2 MLOAD PUSH1 0x3 DUP5 ADD SSTORE SWAP1 MLOAD PUSH1 0x4 DUP4 ADD SSTORE MLOAD PUSH1 0x5 SWAP1 SWAP2 ADD DUP1 SLOAD SWAP2 ISZERO ISZERO PUSH1 0xFF NOT SWAP1 SWAP3 AND SWAP2 SWAP1 SWAP2 OR SWAP1 SSTORE MLOAD PUSH32 0x8867CBC05EEA5A895D1A2E08B969E1284F9AA3F38535DACEE9B49BAA35C61DA7 SWAP1 PUSH2 0xCEA SWAP1 DUP8 SWAP1 DUP8 SWAP1 DUP8 SWAP1 DUP8 SWAP1 DUP8 SWAP1 SWAP5 DUP6 MSTORE PUSH1 0x20 DUP6 ADD SWAP4 SWAP1 SWAP4 MSTORE PUSH1 0x40 DUP5 ADD SWAP2 SWAP1 SWAP2 MSTORE PUSH1 0x60 DUP4 ADD MSTORE PUSH1 0x80 DUP3 ADD MSTORE PUSH1 0xA0 ADD SWAP1 JUMP JUMPDEST PUSH1 0x40 MLOAD DUP1 SWAP2 SUB SWAP1 LOG1 POP POP POP POP POP JUMP JUMPDEST PUSH1 0x3 PUSH1 0x20 MSTORE DUP3 PUSH1 0x0 MSTORE PUSH1 0x40 PUSH1 0x0 KECCAK256 PUSH1 0x20 MSTORE DUP2 PUSH1 0x0 MSTORE PUSH1 0x40 PUSH1 0x0 KECCAK256 DUP2 DUP2 SLOAD DUP2 LT PUSH2 0xD21 JUMPI PUSH1 0x0 DUP1 REVERT JUMPDEST PUSH1 0x0 SWAP2 DUP3 MSTORE PUSH1 0x20 SWAP1 SWAP2 KECCAK256 PUSH1 0x3 SWAP1 SWAP2 MUL ADD DUP1 SLOAD PUSH1 0x1 DUP3 ADD SLOAD PUSH1 0x2 SWAP1 SWAP3 ADD SLOAD PUSH1 0x1 PUSH1 0x1 PUSH1 0xA0 SHL SUB SWAP1 SWAP2 AND SWAP5 POP SWAP1 SWAP3 POP SWAP1 POP DUP4 JUMP JUMPDEST PUSH1 0x0 DUP1 PUSH1 0x40 DUP4 DUP6 SUB SLT ISZERO PUSH2 0xD66 JUMPI PUSH1 0x0 DUP1 REVERT JUMPDEST POP POP DUP1 CALLDATALOAD SWAP3 PUSH1 0x20 SWAP1 SWAP2 ADD CALLDATALOAD SWAP2 POP JUMP JUMPDEST PUSH1 0x0 DUP1 PUSH1 0x0 PUSH1 0x60 DUP5 DUP7 SUB SLT ISZERO PUSH2 0xD8A JUMPI PUSH1 0x0 DUP1 REVERT JUMPDEST POP POP DUP2 CALLDATALOAD SWAP4 PUSH1 0x20 DUP4 ADD CALLDATALOAD SWAP4 POP PUSH1 0x40 SWAP1 SWAP3 ADD CALLDATALOAD SWAP2 SWAP1 POP JUMP JUMPDEST PUSH1 0x20 DUP1 DUP3 MSTORE DUP3 MLOAD DUP3 DUP3 ADD DUP2 SWAP1 MSTORE PUSH1 0x0 SWAP2 DUP5 ADD SWAP1 PUSH1 0x40 DUP5 ADD SWAP1 DUP4 JUMPDEST DUP2 DUP2 LT ISZERO PUSH2 0xDFE JUMPI DUP4 MLOAD PUSH1 0x1 PUSH1 0x1 PUSH1 0xA0 SHL SUB DUP2 MLOAD AND DUP5 MSTORE PUSH1 0x20 DUP2 ADD MLOAD PUSH1 0x20 DUP6 ADD MSTORE PUSH1 0x40 DUP2 ADD MLOAD PUSH1 0x40 DUP6 ADD MSTORE POP PUSH1 0x60 DUP4 ADD SWAP3 POP PUSH1 0x20 DUP5 ADD SWAP4 POP PUSH1 0x1 DUP2 ADD SWAP1 POP PUSH2 0xDBB JUMP JUMPDEST POP SWAP1 SWAP6 SWAP5 POP POP POP POP POP JUMP JUMPDEST PUSH1 0x0 DUP1 PUSH1 0x0 DUP1 PUSH1 0x0 PUSH1 0xA0 DUP7 DUP9 SUB SLT ISZERO PUSH2 0xE21 JUMPI PUSH1 0x0 DUP1 REVERT JUMPDEST POP POP DUP4 CALLDATALOAD SWAP6 PUSH1 0x20 DUP6 ADD CALLDATALOAD SWAP6 POP PUSH1 0x40 DUP6 ADD CALLDATALOAD SWAP5 PUSH1 0x60 DUP2 ADD CALLDATALOAD SWAP5 POP PUSH1 0x80 ADD CALLDATALOAD SWAP3 POP SWAP1 POP JUMP JUMPDEST PUSH4 0x4E487B71 PUSH1 0xE0 SHL PUSH1 0x0 MSTORE PUSH1 0x41 PUSH1 0x4 MSTORE PUSH1 0x24 PUSH1 0x0 REVERT JUMPDEST PUSH1 0x0 DUP3 PUSH1 0x1F DUP4 ADD SLT PUSH2 0xE6B JUMPI PUSH1 0x0 DUP1 REVERT JUMPDEST DUP2 MLOAD PUSH8 0xFFFFFFFFFFFFFFFF DUP2 GT ISZERO PUSH2 0xE85 JUMPI PUSH2 0xE85 PUSH2 0xE44 JUMP JUMPDEST PUSH1 0x40 MLOAD PUSH1 0x1F DUP3 ADD PUSH1 0x1F NOT SWAP1 DUP2 AND PUSH1 0x3F ADD AND DUP2 ADD PUSH8 0xFFFFFFFFFFFFFFFF DUP2 GT DUP3 DUP3 LT OR ISZERO PUSH2 0xEB4 JUMPI PUSH2 0xEB4 PUSH2 0xE44 JUMP JUMPDEST PUSH1 0x40 MSTORE DUP2 DUP2 MSTORE DUP4 DUP3 ADD PUSH1 0x20 ADD DUP6 LT ISZERO PUSH2 0xECC JUMPI PUSH1 0x0 DUP1 REVERT JUMPDEST PUSH1 0x0 JUMPDEST DUP3 DUP2 LT ISZERO PUSH2 0xEEB JUMPI PUSH1 0x20 DUP2 DUP7 ADD DUP2 ADD MLOAD DUP4 DUP4 ADD DUP3 ADD MSTORE ADD PUSH2 0xECF JUMP JUMPDEST POP PUSH1 0x0 SWAP2 DUP2 ADD PUSH1 0x20 ADD SWAP2 SWAP1 SWAP2 MSTORE SWAP4 SWAP3 POP POP POP JUMP JUMPDEST DUP1 MLOAD DUP1 ISZERO ISZERO DUP2 EQ PUSH2 0xF0F JUMPI PUSH1 0x0 DUP1 REVERT JUMPDEST SWAP2 SWAP1 POP JUMP JUMPDEST PUSH1 0x0 DUP1 PUSH1 0x0 DUP1 PUSH1 0x0 PUSH1 0xA0 DUP7 DUP9 SUB SLT ISZERO PUSH2 0xF2C JUMPI PUSH1 0x0 DUP1 REVERT JUMPDEST DUP6 MLOAD PUSH1 0x1 PUSH1 0x1 PUSH1 0xA0 SHL SUB DUP2 AND DUP2 EQ PUSH2 0xF43 JUMPI PUSH1 0x0 DUP1 REVERT JUMPDEST PUSH1 0x20 DUP8 ADD MLOAD SWAP1 SWAP6 POP PUSH8 0xFFFFFFFFFFFFFFFF DUP2 GT ISZERO PUSH2 0xF60 JUMPI PUSH1 0x0 DUP1 REVERT JUMPDEST PUSH2 0xF6C DUP9 DUP3 DUP10 ADD PUSH2 0xE5A JUMP JUMPDEST SWAP5 POP POP PUSH1 0x40 DUP7 ADD MLOAD PUSH8 0xFFFFFFFFFFFFFFFF DUP2 GT ISZERO PUSH2 0xF89 JUMPI PUSH1 0x0 DUP1 REVERT JUMPDEST PUSH2 0xF95 DUP9 DUP3 DUP10 ADD PUSH2 0xE5A JUMP JUMPDEST PUSH1 0x60 DUP9 ADD MLOAD SWAP1 SWAP5 POP SWAP3 POP PUSH2 0xFAD SWAP1 POP PUSH1 0x80 DUP8 ADD PUSH2 0xEFF JUMP JUMPDEST SWAP1 POP SWAP3 SWAP6 POP SWAP3 SWAP6 SWAP1 SWAP4 POP JUMP JUMPDEST PUSH4 0x4E487B71 PUSH1 0xE0 SHL PUSH1 0x0 MSTORE PUSH1 0x11 PUSH1 0x4 MSTORE PUSH1 0x24 PUSH1 0x0 REVERT JUMPDEST DUP2 DUP2 SUB DUP2 DUP2 GT ISZERO PUSH2 0xBB7 JUMPI PUSH2 0xBB7 PUSH2 0xFB9 JUMP JUMPDEST DUP1 DUP3 ADD DUP1 DUP3 GT ISZERO PUSH2 0xBB7 JUMPI PUSH2 0xBB7 PUSH2 0xFB9 JUMP JUMPDEST PUSH4 0x4E487B71 PUSH1 0xE0 SHL PUSH1 0x0 MSTORE PUSH1 0x32 PUSH1 0x4 MSTORE PUSH1 0x24 PUSH1 0x0 REVERT JUMPDEST PUSH1 0x0 DUP1 PUSH1 0x0 DUP1 PUSH1 0x0 PUSH1 0xA0 DUP7 DUP9 SUB SLT ISZERO PUSH2 0x1023 JUMPI PUSH1 0x0 DUP1 REVERT JUMPDEST DUP6 MLOAD PUSH1 0x20 DUP8 ADD MLOAD PUSH1 0x40 DUP9 ADD MLOAD PUSH1 0x60 DUP10 ADD MLOAD SWAP3 SWAP8 POP SWAP1 SWAP6 POP SWAP4 POP SWAP2 POP PUSH2 0xFAD PUSH1 0x80 DUP8 ADD PUSH2 0xEFF JUMP JUMPDEST PUSH1 0x0 PUSH1 0x20 DUP3 DUP5 SUB SLT ISZERO PUSH2 0x105C JUMPI PUSH1 0x0 DUP1 REVERT JUMPDEST PUSH2 0x1065 DUP3 PUSH2 0xEFF JUMP JUMPDEST SWAP4 SWAP3 POP POP POP JUMP INVALID LOG1 PUSH5 0x736F6C6343 STOP ADDMOD SHR STOP EXP "},"methodIdentifiers":{"auctions(uint256,uint256)":"fc23d5f0","bids(uint256,uint256,uint256)":"ca5314d8","courseCertificate()":"e5bff23e","createAuction(uint256,uint256,uint256,uint256,uint256)":"8a157df3","finalizeAuction(uint256,uint256)":"115a93c8","getBids(uint256,uint256)":"86514e26","honeyToken()":"29831f5d","placeBid(uint256,uint256,uint256)":"5e62be25"}}}}}