{
  "_format": "hh-sol-artifact-1",
  "contractName": "CourseAuction",
  "sourceName": "src/CourseAuction.sol",
  "abi": [
    {
      "inputs": [
        {
          "internalType": "address",
          "name": "_courseCertificate",
          "type": "address"
        },
        {
          "internalType": "address",
          "name": "_honeyToken",
          "type": "address"
        }
      ],
      "stateMutability": "nonpayable",
      "type": "constructor"
    },
    {
      "anonymous": false,
      "inputs": [
        {
          "indexed": false,
          "internalType": "uint256",
          "name": "courseId",
          "type": "uint256"
        },
        {
          "indexed": false,
          "internalType": "uint256",
          "name": "batchId",
          "type": "uint256"
        },
        {
          "indexed": false,
          "internalType": "uint256",
          "name": "startTime",
          "type": "uint256"
        },
        {
          "indexed": false,
          "internalType": "uint256",
          "name": "endTime",
          "type": "uint256"
        },
        {
          "indexed": false,
          "internalType": "uint256",
          "name": "minPrice",
          "type": "uint256"
        }
      ],
      "name": "AuctionCreated",
      "type": "event"
    },
    {
      "anonymous": false,
      "inputs": [
        {
          "indexed": false,
          "internalType": "uint256",
          "name": "courseId",
          "type": "uint256"
        },
        {
          "indexed": false,
          "internalType": "uint256",
          "name": "batchId",
          "type": "uint256"
        }
      ],
      "name": "AuctionFinalized",
      "type": "event"
    },
    {
      "anonymous": false,
      "inputs": [
        {
          "indexed": false,
          "internalType": "uint256",
          "name": "courseId",
          "type": "uint256"
        },
        {
          "indexed": false,
          "internalType": "uint256",
          "name": "batchId",
          "type": "uint256"
        },
        {
          "indexed": false,
          "internalType": "address",
          "name": "bidder",
          "type": "address"
        },
        {
          "indexed": false,
          "internalType": "uint256",
          "name": "bidTime",
          "type": "uint256"
        },
        {
          "indexed": false,
          "internalType": "uint256",
          "name": "amount",
          "type": "uint256"
        }
      ],
      "name": "BidPlaced",
      "type": "event"
    },
    {
      "inputs": [
        {
          "internalType": "uint256",
          "name": "",
          "type": "uint256"
        },
        {
          "internalType": "uint256",
          "name": "",
          "type": "uint256"
        }
      ],
      "name": "auctions",
      "outputs": [
        {
          "internalType": "uint256",
          "name": "courseId",
          "type": "uint256"
        },
        {
          "internalType": "uint256",
          "name": "batchId",
          "type": "uint256"
        },
        {
          "internalType": "uint256",
          "name": "startTime",
          "type": "uint256"
        },
        {
          "internalType": "uint256",
          "name": "endTime",
          "type": "uint256"
        },
        {
          "internalType": "uint256",
          "name": "minPrice",
          "type": "uint256"
        },
        {
          "internalType": "bool",
          "name": "isActive",
          "type": "bool"
        }
      ],
      "stateMutability": "view",
      "type": "function"
    },
    {
      "inputs": [
        {
          "internalType": "uint256",
          "name": "",
          "type": "uint256"
        },
        {
          "internalType": "uint256",
          "name": "",
          "type": "uint256"
        },
        {
          "internalType": "uint256",
          "name": "",
          "type": "uint256"
        }
      ],
      "name": "bids",
      "outputs": [
        {
          "internalType": "address",
          "name": "bidder",
          "type": "address"
        },
        {
          "internalType": "uint256",
          "name": "bidTime",
          "type": "uint256"
        },
        {
          "internalType": "uint256",
          "name": "amount",
          "type": "uint256"
        }
      ],
      "stateMutability": "view",
      "type": "function"
    },
    {
      "inputs": [],
      "name": "courseCertificate",
      "outputs": [
        {
          "internalType": "contract CourseCertificate",
          "name": "",
          "type": "address"
        }
      ],
      "stateMutability": "view",
      "type": "function"
    },
    {
      "inputs": [
        {
          "internalType": "uint256",
          "name": "courseId",
          "type": "uint256"
        },
        {
          "internalType": "uint256",
          "name": "batchId",
          "type": "uint256"
        },
        {
          "internalType": "uint256",
          "name": "startTime",
          "type": "uint256"
        },
        {
          "internalType": "uint256",
          "name": "endTime",
          "type": "uint256"
        },
        {
          "internalType": "uint256",
          "name": "minPrice",
          "type": "uint256"
        }
      ],
      "name": "createAuction",
      "outputs": [],
      "stateMutability": "nonpayable",
      "type": "function"
    },
    {
      "inputs": [
        {
          "internalType": "uint256",
          "name": "courseId",
          "type": "uint256"
        },
        {
          "internalType": "uint256",
          "name": "batchId",
          "type": "uint256"
        }
      ],
      "name": "finalizeAuction",
      "outputs": [],
      "stateMutability": "nonpayable",
      "type": "function"
    },
    {
      "inputs": [
        {
          "internalType": "uint256",
          "name": "courseId",
          "type": "uint256"
        },
        {
          "internalType": "uint256",
          "name": "batchId",
          "type": "uint256"
        }
      ],
      "name": "getBids",
      "outputs": [
        {
          "components": [
            {
              "internalType": "address",
              "name": "bidder",
              "type": "address"
            },
            {
              "internalType": "uint256",
              "name": "bidTime",
              "type": "uint256"
            },
            {
              "internalType": "uint256",
              "name": "amount",
              "type": "uint256"
            }
          ],
          "internalType": "struct CourseAuction.Bid[]",
          "name": "",
          "type": "tuple[]"
        }
      ],
      "stateMutability": "view",
      "type": "function"
    },
    {
      "inputs": [],
      "name": "honeyToken",
      "outputs": [
        {
          "internalType": "contract HoneyToken",
          "name": "",
          "type": "address"
        }
      ],
      "stateMutability": "view",
      "type": "function"
    },
    {
      "inputs": [
        {
          "internalType": "uint256",
          "name": "courseId",
          "type": "uint256"
        },
        {
          "internalType": "uint256",
          "name": "batchId",
          "type": "uint256"
        },
        {
          "internalType": "uint256",
          "name": "amount",
          "type": "uint256"
        }
      ],
      "name": "placeBid",
      "outputs": [],
      "stateMutability": "nonpayable",
      "type": "function"
    }
  ],
  "bytecode": "0x6080604052348015600f57600080fd5b5060405161112d38038061112d833981016040819052602c916077565b600080546001600160a01b039384166001600160a01b0319918216179091556001805492909316911617905560a5565b80516001600160a01b0381168114607257600080fd5b919050565b60008060408385031215608957600080fd5b609083605c565b9150609c60208401605c565b90509250929050565b611079806100b46000396000f3fe608060405234801561001057600080fd5b50600436106100885760003560e01c80638a157df31161005b5780638a157df314610105578063ca5314d814610118578063e5bff23e14610150578063fc23d5f01461016357600080fd5b8063115a93c81461008d57806329831f5d146100a25780635e62be25146100d257806386514e26146100e5575b600080fd5b6100a061009b366004610d53565b6101e2565b005b6001546100b5906001600160a01b031681565b6040516001600160a01b0390911681526020015b60405180910390f35b6100a06100e0366004610d75565b6108c3565b6100f86100f3366004610d53565b610b25565b6040516100c99190610da1565b6100a0610113366004610e09565b610bbd565b61012b610126366004610d75565b610cf9565b604080516001600160a01b0390941684526020840192909252908201526060016100c9565b6000546100b5906001600160a01b031681565b6101b3610171366004610d53565b60026020818152600093845260408085209091529183529120805460018201549282015460038301546004840154600590940154929493919290919060ff1686565b6040805196875260208701959095529385019290925260608401526080830152151560a082015260c0016100c9565b60008054604051634b7cbce960e11b8152600481018590528492916001600160a01b0316906396f979d290602401600060405180830381865afa15801561022d573d6000803e3d6000fd5b505050506040513d6000823e601f3d908101601f191682016040526102559190810190610f14565b505050509050806001600160a01b0316336001600160a01b0316146102e75760405162461bcd60e51b815260206004820152602a60248201527f4f6e6c7920636f7572736520746561636865722063616e2063616c6c2074686960448201527f732066756e6374696f6e0000000000000000000000000000000000000000000060648201526084015b60405180910390fd5b60008481526002602090815260408083208684529091529020600581015460ff166103545760405162461bcd60e51b815260206004820152601260248201527f41756374696f6e206e6f7420616374697665000000000000000000000000000060448201526064016102de565b6000858152600360209081526040808320878452909152902080546103bb5760405162461bcd60e51b815260206004820152600e60248201527f4e6f206269647320706c6163656400000000000000000000000000000000000060448201526064016102de565b60005b81546103cc90600190610fcf565b8110156105ba5760005b82546001906103e6908490610fcf565b6103f09190610fcf565b8110156105b15782610403826001610fe2565b8154811061041357610413610ff5565b90600052602060002090600302016002015483828154811061043757610437610ff5565b90600052602060002090600302016002015410156105a957600083828154811061046357610463610ff5565b600091825260209182902060408051606081018252600390930290910180546001600160a01b03168352600180820154948401949094526002015490820152915084906104b1908490610fe2565b815481106104c1576104c1610ff5565b90600052602060002090600302018483815481106104e1576104e1610ff5565b600091825260209091208254600390920201805473ffffffffffffffffffffffffffffffffffffffff19166001600160a01b0390921691909117815560018083015481830155600292830154929091019190915581908590610544908590610fe2565b8154811061055457610554610ff5565b6000918252602091829020835160039290920201805473ffffffffffffffffffffffffffffffffffffffff19166001600160a01b03909216919091178155908201516001820155604090910151600290910155505b6001016103d6565b506001016103be565b5060008054604051635d47964b60e01b815260048101899052602481018890526001600160a01b0390911690635d47964b9060440160a060405180830381865afa15801561060c573d6000803e3d6000fd5b505050506040513d601f19601f82011682018060405250810190610630919061100b565b50935050505060008280549050821061064a57825461064c565b815b905060005b8181101561071e5760005484546001600160a01b0390911690631af4e3e09086908490811061068257610682610ff5565b600091825260209091206003909102015460405160e083901b7fffffffff000000000000000000000000000000000000000000000000000000001681526001600160a01b039091166004820152602481018c9052604481018b9052606401600060405180830381600087803b1580156106fa57600080fd5b505af115801561070e573d6000803e3d6000fd5b5050600190920191506106519050565b50805b83548110156108735760015484546001600160a01b039091169063a9059cbb9086908490811061075357610753610ff5565b600091825260209091206003909102015486546001600160a01b039091169087908590811061078457610784610ff5565b60009182526020909120600260039092020101546040517fffffffff0000000000000000000000000000000000000000000000000000000060e085901b1681526001600160a01b03909216600483015260248201526044016020604051808303816000875af11580156107fb573d6000803e3d6000fd5b505050506040513d601f19601f8201168201806040525081019061081f919061104a565b61086b5760405162461bcd60e51b815260206004820152601560248201527f546f6b656e205472616e73666572206661696c6564000000000000000000000060448201526064016102de565b600101610721565b5060058401805460ff1916905560408051898152602081018990527f878175d6894f965b46049cdadea9efcc83bffb98ab4b9cb359e0c67757944778910160405180910390a15050505050505050565b60008381526002602090815260408083208584529091529020600581015460ff166109305760405162461bcd60e51b815260206004820152601560248201527f41756374696f6e206973206e6f7420616374697665000000000000000000000060448201526064016102de565b80600401548210156109845760405162461bcd60e51b815260206004820152600b60248201527f42696420746f6f206c6f7700000000000000000000000000000000000000000060448201526064016102de565b6001546040516323b872dd60e01b8152336004820152306024820152604481018490526001600160a01b03909116906323b872dd906064016020604051808303816000875af11580156109db573d6000803e3d6000fd5b505050506040513d601f19601f820116820180604052508101906109ff919061104a565b610a4b5760405162461bcd60e51b815260206004820152601560248201527f546f6b656e205472616e73666572206661696c6564000000000000000000000060448201526064016102de565b6000848152600360208181526040808420878552825280842081516060808201845233808352428387018181528487018c8152865460018082018955978c529a89902095519a909902909401805473ffffffffffffffffffffffffffffffffffffffff19166001600160a01b03909a16999099178955925193880193909355945160029096019590955581518981529283018890529082015290810191909152608081018390527f34a9aee5f476df7f218e672a92a2cb667ee9908bc59d1b2fa2b2a882f715775d9060a00160405180910390a150505050565b60008281526003602090815260408083208484528252808320805482518185028101850190935280835260609492939192909184015b82821015610bb0576000848152602090819020604080516060810182526003860290920180546001600160a01b0316835260018082015484860152600290910154918301919091529083529092019101610b5b565b5050505090505b92915050565b828211610c165760405162461bcd60e51b815260206004820152602160248201527f456e642074696d65206d7573742062652061667465722073746172742074696d6044820152606560f81b60648201526084016102de565b6040805160c08101825286815260208082018781528284018781526060840187815260808501878152600160a0870181815260008e815260028089528a82208f8352909852899020975188559451908701559151938501939093559151600384015590516004830155516005909101805491151560ff19909216919091179055517f8867cbc05eea5a895d1a2e08b969e1284f9aa3f38535dacee9b49baa35c61da790610cea9087908790879087908790948552602085019390935260408401919091526060830152608082015260a00190565b60405180910390a15050505050565b60036020528260005260406000206020528160005260406000208181548110610d2157600080fd5b60009182526020909120600390910201805460018201546002909201546001600160a01b039091169450909250905083565b60008060408385031215610d6657600080fd5b50508035926020909101359150565b600080600060608486031215610d8a57600080fd5b505081359360208301359350604090920135919050565b602080825282518282018190526000918401906040840190835b81811015610dfe5783516001600160a01b038151168452602081015160208501526040810151604085015250606083019250602084019350600181019050610dbb565b509095945050505050565b600080600080600060a08688031215610e2157600080fd5b505083359560208501359550604085013594606081013594506080013592509050565b634e487b7160e01b600052604160045260246000fd5b600082601f830112610e6b57600080fd5b815167ffffffffffffffff811115610e8557610e85610e44565b604051601f8201601f19908116603f0116810167ffffffffffffffff81118282101715610eb457610eb4610e44565b604052818152838201602001851015610ecc57600080fd5b60005b82811015610eeb57602081860181015183830182015201610ecf565b506000918101602001919091529392505050565b80518015158114610f0f57600080fd5b919050565b600080600080600060a08688031215610f2c57600080fd5b85516001600160a01b0381168114610f4357600080fd5b602087015190955067ffffffffffffffff811115610f6057600080fd5b610f6c88828901610e5a565b945050604086015167ffffffffffffffff811115610f8957600080fd5b610f9588828901610e5a565b60608801519094509250610fad905060808701610eff565b90509295509295909350565b634e487b7160e01b600052601160045260246000fd5b81810381811115610bb757610bb7610fb9565b80820180821115610bb757610bb7610fb9565b634e487b7160e01b600052603260045260246000fd5b600080600080600060a0868803121561102357600080fd5b855160208701516040880151606089015192975090955093509150610fad60808701610eff565b60006020828403121561105c57600080fd5b61106582610eff565b939250505056fea164736f6c634300081c000a",
  "linkReferences": {},
  "deployedLinkReferences": {}
}