{
  "_format": "hh-sol-artifact-1",
  "contractName": "CourseCertificate",
  "sourceName": "src/CourseCertificate.sol",
  "abi": [
    {
      "inputs": [],
      "stateMutability": "nonpayable",
      "type": "constructor"
    },
    {
      "inputs": [
        {
          "internalType": "address",
          "name": "sender",
          "type": "address"
        },
        {
          "internalType": "uint256",
          "name": "balance",
          "type": "uint256"
        },
        {
          "internalType": "uint256",
          "name": "needed",
          "type": "uint256"
        },
        {
          "internalType": "uint256",
          "name": "tokenId",
          "type": "uint256"
        }
      ],
      "name": "ERC1155InsufficientBalance",
      "type": "error"
    },
    {
      "inputs": [
        {
          "internalType": "address",
          "name": "approver",
          "type": "address"
        }
      ],
      "name": "ERC1155InvalidApprover",
      "type": "error"
    },
    {
      "inputs": [
        {
          "internalType": "uint256",
          "name": "idsLength",
          "type": "uint256"
        },
        {
          "internalType": "uint256",
          "name": "valuesLength",
          "type": "uint256"
        }
      ],
      "name": "ERC1155InvalidArrayLength",
      "type": "error"
    },
    {
      "inputs": [
        {
          "internalType": "address",
          "name": "operator",
          "type": "address"
        }
      ],
      "name": "ERC1155InvalidOperator",
      "type": "error"
    },
    {
      "inputs": [
        {
          "internalType": "address",
          "name": "receiver",
          "type": "address"
        }
      ],
      "name": "ERC1155InvalidReceiver",
      "type": "error"
    },
    {
      "inputs": [
        {
          "internalType": "address",
          "name": "sender",
          "type": "address"
        }
      ],
      "name": "ERC1155InvalidSender",
      "type": "error"
    },
    {
      "inputs": [
        {
          "internalType": "address",
          "name": "operator",
          "type": "address"
        },
        {
          "internalType": "address",
          "name": "owner",
          "type": "address"
        }
      ],
      "name": "ERC1155MissingApprovalForAll",
      "type": "error"
    },
    {
      "inputs": [
        {
          "internalType": "address",
          "name": "owner",
          "type": "address"
        }
      ],
      "name": "OwnableInvalidOwner",
      "type": "error"
    },
    {
      "inputs": [
        {
          "internalType": "address",
          "name": "account",
          "type": "address"
        }
      ],
      "name": "OwnableUnauthorizedAccount",
      "type": "error"
    },
    {
      "anonymous": false,
      "inputs": [
        {
          "indexed": true,
          "internalType": "address",
          "name": "account",
          "type": "address"
        },
        {
          "indexed": true,
          "internalType": "address",
          "name": "operator",
          "type": "address"
        },
        {
          "indexed": false,
          "internalType": "bool",
          "name": "approved",
          "type": "bool"
        }
      ],
      "name": "ApprovalForAll",
      "type": "event"
    },
    {
      "anonymous": false,
      "inputs": [
        {
          "indexed": true,
          "internalType": "uint256",
          "name": "tokenId",
          "type": "uint256"
        },
        {
          "indexed": true,
          "internalType": "address",
          "name": "student",
          "type": "address"
        },
        {
          "indexed": false,
          "internalType": "uint256",
          "name": "oldLevel",
          "type": "uint256"
        },
        {
          "indexed": false,
          "internalType": "uint256",
          "name": "newLevel",
          "type": "uint256"
        },
        {
          "indexed": false,
          "internalType": "bool",
          "name": "isCompleted",
          "type": "bool"
        }
      ],
      "name": "NFTUpgraded",
      "type": "event"
    },
    {
      "anonymous": false,
      "inputs": [
        {
          "indexed": true,
          "internalType": "address",
          "name": "previousOwner",
          "type": "address"
        },
        {
          "indexed": true,
          "internalType": "address",
          "name": "newOwner",
          "type": "address"
        }
      ],
      "name": "OwnershipTransferred",
      "type": "event"
    },
    {
      "anonymous": false,
      "inputs": [
        {
          "indexed": true,
          "internalType": "address",
          "name": "operator",
          "type": "address"
        },
        {
          "indexed": true,
          "internalType": "address",
          "name": "from",
          "type": "address"
        },
        {
          "indexed": true,
          "internalType": "address",
          "name": "to",
          "type": "address"
        },
        {
          "indexed": false,
          "internalType": "uint256[]",
          "name": "ids",
          "type": "uint256[]"
        },
        {
          "indexed": false,
          "internalType": "uint256[]",
          "name": "values",
          "type": "uint256[]"
        }
      ],
      "name": "TransferBatch",
      "type": "event"
    },
    {
      "anonymous": false,
      "inputs": [
        {
          "indexed": true,
          "internalType": "address",
          "name": "operator",
          "type": "address"
        },
        {
          "indexed": true,
          "internalType": "address",
          "name": "from",
          "type": "address"
        },
        {
          "indexed": true,
          "internalType": "address",
          "name": "to",
          "type": "address"
        },
        {
          "indexed": false,
          "internalType": "uint256",
          "name": "id",
          "type": "uint256"
        },
        {
          "indexed": false,
          "internalType": "uint256",
          "name": "value",
          "type": "uint256"
        }
      ],
      "name": "TransferSingle",
      "type": "event"
    },
    {
      "anonymous": false,
      "inputs": [
        {
          "indexed": false,
          "internalType": "string",
          "name": "value",
          "type": "string"
        },
        {
          "indexed": true,
          "internalType": "uint256",
          "name": "id",
          "type": "uint256"
        }
      ],
      "name": "URI",
      "type": "event"
    },
    {
      "inputs": [
        {
          "internalType": "uint256",
          "name": "courseId",
          "type": "uint256"
        },
        {
          "internalType": "uint256",
          "name": "batchId",
          "type": "uint256"
        },
        {
          "internalType": "uint256",
          "name": "startTime",
          "type": "uint256"
        },
        {
          "internalType": "uint256",
          "name": "endTime",
          "type": "uint256"
        },
        {
          "internalType": "uint256",
          "name": "maxStudents",
          "type": "uint256"
        }
      ],
      "name": "addCourseBatch",
      "outputs": [],
      "stateMutability": "nonpayable",
      "type": "function"
    },
    {
      "inputs": [],
      "name": "auctionContract",
      "outputs": [
        {
          "internalType": "address",
          "name": "",
          "type": "address"
        }
      ],
      "stateMutability": "view",
      "type": "function"
    },
    {
      "inputs": [
        {
          "internalType": "address",
          "name": "account",
          "type": "address"
        },
        {
          "internalType": "uint256",
          "name": "id",
          "type": "uint256"
        }
      ],
      "name": "balanceOf",
      "outputs": [
        {
          "internalType": "uint256",
          "name": "",
          "type": "uint256"
        }
      ],
      "stateMutability": "view",
      "type": "function"
    },
    {
      "inputs": [
        {
          "internalType": "address[]",
          "name": "accounts",
          "type": "address[]"
        },
        {
          "internalType": "uint256[]",
          "name": "ids",
          "type": "uint256[]"
        }
      ],
      "name": "balanceOfBatch",
      "outputs": [
        {
          "internalType": "uint256[]",
          "name": "",
          "type": "uint256[]"
        }
      ],
      "stateMutability": "view",
      "type": "function"
    },
    {
      "inputs": [
        {
          "internalType": "uint256",
          "name": "",
          "type": "uint256"
        },
        {
          "internalType": "uint256",
          "name": "",
          "type": "uint256"
        }
      ],
      "name": "batches",
      "outputs": [
        {
          "internalType": "uint256",
          "name": "startTime",
          "type": "uint256"
        },
        {
          "internalType": "uint256",
          "name": "endTime",
          "type": "uint256"
        },
        {
          "internalType": "uint256",
          "name": "maxStudents",
          "type": "uint256"
        },
        {
          "internalType": "uint256",
          "name": "enrolledStudents",
          "type": "uint256"
        },
        {
          "internalType": "bool",
          "name": "isActive",
          "type": "bool"
        }
      ],
      "stateMutability": "view",
      "type": "function"
    },
    {
      "inputs": [
        {
          "internalType": "uint256",
          "name": "",
          "type": "uint256"
        }
      ],
      "name": "courses",
      "outputs": [
        {
          "internalType": "address",
          "name": "teacher",
          "type": "address"
        },
        {
          "internalType": "string",
          "name": "name",
          "type": "string"
        },
        {
          "internalType": "string",
          "name": "description",
          "type": "string"
        },
        {
          "internalType": "uint256",
          "name": "courseId",
          "type": "uint256"
        },
        {
          "internalType": "bool",
          "name": "isActive",
          "type": "bool"
        }
      ],
      "stateMutability": "view",
      "type": "function"
    },
    {
      "inputs": [
        {
          "internalType": "string",
          "name": "name",
          "type": "string"
        },
        {
          "internalType": "string",
          "name": "description",
          "type": "string"
        }
      ],
      "name": "createCourse",
      "outputs": [
        {
          "internalType": "uint256",
          "name": "",
          "type": "uint256"
        }
      ],
      "stateMutability": "nonpayable",
      "type": "function"
    },
    {
      "inputs": [
        {
          "internalType": "uint256",
          "name": "courseId",
          "type": "uint256"
        },
        {
          "internalType": "address",
          "name": "student",
          "type": "address"
        }
      ],
      "name": "getNFTLevel",
      "outputs": [
        {
          "internalType": "uint256",
          "name": "level",
          "type": "uint256"
        },
        {
          "internalType": "uint256",
          "name": "lastUpgradeTime",
          "type": "uint256"
        },
        {
          "internalType": "bool",
          "name": "isCompleted",
          "type": "bool"
        }
      ],
      "stateMutability": "view",
      "type": "function"
    },
    {
      "inputs": [
        {
          "internalType": "address",
          "name": "account",
          "type": "address"
        },
        {
          "internalType": "address",
          "name": "operator",
          "type": "address"
        }
      ],
      "name": "isApprovedForAll",
      "outputs": [
        {
          "internalType": "bool",
          "name": "",
          "type": "bool"
        }
      ],
      "stateMutability": "view",
      "type": "function"
    },
    {
      "inputs": [
        {
          "internalType": "address",
          "name": "winner",
          "type": "address"
        },
        {
          "internalType": "uint256",
          "name": "courseId",
          "type": "uint256"
        },
        {
          "internalType": "uint256",
          "name": "batchId",
          "type": "uint256"
        }
      ],
      "name": "mintForWinner",
      "outputs": [],
      "stateMutability": "nonpayable",
      "type": "function"
    },
    {
      "inputs": [
        {
          "internalType": "uint256",
          "name": "",
          "type": "uint256"
        },
        {
          "internalType": "address",
          "name": "",
          "type": "address"
        }
      ],
      "name": "nftLevels",
      "outputs": [
        {
          "internalType": "uint256",
          "name": "level",
          "type": "uint256"
        },
        {
          "internalType": "uint256",
          "name": "lastUpgradeTime",
          "type": "uint256"
        },
        {
          "internalType": "bool",
          "name": "isCompleted",
          "type": "bool"
        }
      ],
      "stateMutability": "view",
      "type": "function"
    },
    {
      "inputs": [],
      "name": "owner",
      "outputs": [
        {
          "internalType": "address",
          "name": "",
          "type": "address"
        }
      ],
      "stateMutability": "view",
      "type": "function"
    },
    {
      "inputs": [],
      "name": "renounceOwnership",
      "outputs": [],
      "stateMutability": "nonpayable",
      "type": "function"
    },
    {
      "inputs": [
        {
          "internalType": "address",
          "name": "from",
          "type": "address"
        },
        {
          "internalType": "address",
          "name": "to",
          "type": "address"
        },
        {
          "internalType": "uint256[]",
          "name": "ids",
          "type": "uint256[]"
        },
        {
          "internalType": "uint256[]",
          "name": "values",
          "type": "uint256[]"
        },
        {
          "internalType": "bytes",
          "name": "data",
          "type": "bytes"
        }
      ],
      "name": "safeBatchTransferFrom",
      "outputs": [],
      "stateMutability": "nonpayable",
      "type": "function"
    },
    {
      "inputs": [
        {
          "internalType": "address",
          "name": "from",
          "type": "address"
        },
        {
          "internalType": "address",
          "name": "to",
          "type": "address"
        },
        {
          "internalType": "uint256",
          "name": "id",
          "type": "uint256"
        },
        {
          "internalType": "uint256",
          "name": "value",
          "type": "uint256"
        },
        {
          "internalType": "bytes",
          "name": "data",
          "type": "bytes"
        }
      ],
      "name": "safeTransferFrom",
      "outputs": [],
      "stateMutability": "nonpayable",
      "type": "function"
    },
    {
      "inputs": [
        {
          "internalType": "address",
          "name": "operator",
          "type": "address"
        },
        {
          "internalType": "bool",
          "name": "approved",
          "type": "bool"
        }
      ],
      "name": "setApprovalForAll",
      "outputs": [],
      "stateMutability": "nonpayable",
      "type": "function"
    },
    {
      "inputs": [
        {
          "internalType": "address",
          "name": "_auctionContract",
          "type": "address"
        }
      ],
      "name": "setAuctionContract",
      "outputs": [],
      "stateMutability": "nonpayable",
      "type": "function"
    },
    {
      "inputs": [
        {
          "internalType": "bytes4",
          "name": "interfaceId",
          "type": "bytes4"
        }
      ],
      "name": "supportsInterface",
      "outputs": [
        {
          "internalType": "bool",
          "name": "",
          "type": "bool"
        }
      ],
      "stateMutability": "view",
      "type": "function"
    },
    {
      "inputs": [
        {
          "internalType": "address",
          "name": "newOwner",
          "type": "address"
        }
      ],
      "name": "transferOwnership",
      "outputs": [],
      "stateMutability": "nonpayable",
      "type": "function"
    },
    {
      "inputs": [
        {
          "internalType": "uint256",
          "name": "courseId",
          "type": "uint256"
        },
        {
          "internalType": "address",
          "name": "student",
          "type": "address"
        },
        {
          "internalType": "uint256",
          "name": "newLevel",
          "type": "uint256"
        }
      ],
      "name": "upgradeNFT",
      "outputs": [],
      "stateMutability": "nonpayable",
      "type": "function"
    },
    {
      "inputs": [
        {
          "internalType": "uint256",
          "name": "",
          "type": "uint256"
        }
      ],
      "name": "uri",
      "outputs": [
        {
          "internalType": "string",
          "name": "",
          "type": "string"
        }
      ],
      "stateMutability": "view",
      "type": "function"
    }
  ],
  "bytecode": "0x608060405234801561001057600080fd5b50336040518060600160405280602381526020016123336023913961003481610077565b506001600160a01b03811661006357604051631e4fbdf760e01b81526000600482015260240160405180910390fd5b61006c81610087565b506000600755610236565b60026100838282610178565b5050565b600380546001600160a01b038381166001600160a01b0319831681179093556040519116919082907f8be0079c531659141344cd1fd0a4f28419497f9722a3daafe3b4186f6b6457e090600090a35050565b634e487b7160e01b600052604160045260246000fd5b600181811c9082168061010357607f821691505b60208210810361012357634e487b7160e01b600052602260045260246000fd5b50919050565b601f82111561017357806000526020600020601f840160051c810160208510156101505750805b601f840160051c820191505b81811015610170576000815560010161015c565b50505b505050565b81516001600160401b03811115610191576101916100d9565b6101a58161019f84546100ef565b84610129565b6020601f8211600181146101d957600083156101c15750848201515b600019600385901b1c1916600184901b178455610170565b600084815260208120601f198516915b8281101561020957878501518255602094850194600190920191016101e9565b50848210156102275786840151600019600387901b60f8161c191681555b50505050600190811b01905550565b6120ee806102456000396000f3fe608060405234801561001057600080fd5b50600436106101765760003560e01c80635d47964b116100d8578063a22cb4651161008c578063e985e9c511610066578063e985e9c514610421578063f242432a1461045d578063f2fde38b1461047057600080fd5b8063a22cb465146103be578063a26a7953146103d1578063bab261f0146103e457600080fd5b80638da5cb5b116100bd5780638da5cb5b1461037657806396f979d214610387578063973de566146103ab57600080fd5b80635d47964b146102f9578063715018a61461036e57600080fd5b80630e89341c1161012f5780631af4e3e0116101145780631af4e3e0146102b35780632eb2c2d6146102c65780634e1273f4146102d957600080fd5b80630e89341c1461021757806310fe8ede1461023757600080fd5b8063023924c711610160578063023924c7146101c45780630ab8afac146101d95780630c9c18431461020457600080fd5b8062fdd58e1461017b57806301ffc9a7146101a1575b600080fd5b61018e6101893660046117e2565b610483565b6040519081526020015b60405180910390f35b6101b46101af366004611822565b6104ab565b6040519015158152602001610198565b6101d76101d2366004611846565b6104fb565b005b6008546101ec906001600160a01b031681565b6040516001600160a01b039091168152602001610198565b6101d7610212366004611861565b610532565b61022a610225366004611897565b610754565b60405161019891906118f6565b610296610245366004611909565b60009182526006602090815260408084206001600160a01b039390931684529181529181902081516060810183528154808252600183015494820185905260029092015460ff161515920182905292565b604080519384526020840192909252151590820152606001610198565b6101d76102c1366004611935565b6107e8565b6101d76102d4366004611ab7565b6109db565b6102ec6102e7366004611b6d565b610a61565b6040516101989190611c72565b610344610307366004611c85565b6005602090815260009283526040808420909152908252902080546001820154600283015460038401546004909401549293919290919060ff1685565b6040805195865260208601949094529284019190915260608301521515608082015260a001610198565b6101d7610b2e565b6003546001600160a01b03166101ec565b61039a610395366004611897565b610b42565b604051610198959493929190611ca7565b6101d76103b9366004611cf5565b610c8f565b6101d76103cc366004611d30565b610e1b565b61018e6103df366004611d6c565b610e2a565b6102966103f2366004611909565b600660209081526000928352604080842090915290825290208054600182015460029092015490919060ff1683565b6101b461042f366004611dcb565b6001600160a01b03918216600090815260016020908152604080832093909416825291909152205460ff1690565b6101d761046b366004611df5565b610efb565b6101d761047e366004611846565b610f79565b6000818152602081815260408083206001600160a01b03861684529091529020545b92915050565b60006001600160e01b03198216636cdb3d1360e11b14806104dc57506001600160e01b031982166303a24d0760e21b145b806104a557506301ffc9a760e01b6001600160e01b03198316146104a5565b610503610fb7565b6008805473ffffffffffffffffffffffffffffffffffffffff19166001600160a01b0392909216919091179055565b6000838152600460205260409020546001600160a01b0316331461059d5760405162461bcd60e51b815260206004820152601c60248201527f4f6e6c7920746561636865722063616e2075706772616465204e46540000000060448201526064015b60405180910390fd5b60006105a98385610483565b116105f65760405162461bcd60e51b815260206004820152601d60248201527f53747564656e7420646f6573206e6f74206f776e2074686973204e46540000006044820152606401610594565b60008381526006602090815260408083206001600160a01b038616845290915290208054821161068e5760405162461bcd60e51b815260206004820152602b60248201527f4e6577206c6576656c206d75737420626520686967686572207468616e20637560448201527f7272656e74206c6576656c0000000000000000000000000000000000000000006064820152608401610594565b600281015460ff16156106e35760405162461bcd60e51b815260206004820152601860248201527f436f7572736520616c726561647920636f6d706c6574656400000000000000006044820152606401610594565b80548282554260018084019190915560028301805460ff191682179055604080518381526020810186905280820192909252516001600160a01b0386169187917f2a897456a15e9d352418193890ee00d3555d797fe71949dc9e4d65950c40e93f9181900360600190a35050505050565b60606002805461076390611e4e565b80601f016020809104026020016040519081016040528092919081815260200182805461078f90611e4e565b80156107dc5780601f106107b1576101008083540402835291602001916107dc565b820191906000526020600020905b8154815290600101906020018083116107bf57829003601f168201915b50505050509050919050565b6008546001600160a01b0316331461084e5760405162461bcd60e51b815260206004820152602360248201527f4f6e6c792061756374696f6e20636f6e74726163742063616e2063616c6c207460448201526268697360e81b6064820152608401610594565b6000828152600460208190526040909120015460ff166108b05760405162461bcd60e51b815260206004820152601460248201527f436f75727365206973206e6f74206163746976650000000000000000000000006044820152606401610594565b600082815260056020908152604080832084845290915290206004015460ff1661091c5760405162461bcd60e51b815260206004820152601360248201527f4261746368206973206e6f7420616374697665000000000000000000000000006044820152606401610594565b6000828152600560209081526040808320848452909152902060028101546003909101541061098d5760405162461bcd60e51b815260206004820152600d60248201527f42617463682069732066756c6c000000000000000000000000000000000000006044820152606401610594565b6109a98383600160405180602001604052806000815250610fe4565b600082815260056020908152604080832084845290915281206003018054916109d183611e9e565b9190505550505050565b336001600160a01b0386168114801590610a1b57506001600160a01b0380871660009081526001602090815260408083209385168352929052205460ff16155b15610a4c5760405163711bec9160e11b81526001600160a01b03808316600483015287166024820152604401610594565b610a598686868686611041565b505050505050565b60608151835114610a925781518351604051635b05999160e01b815260048101929092526024820152604401610594565b6000835167ffffffffffffffff811115610aae57610aae611968565b604051908082528060200260200182016040528015610ad7578160200160208202803683370190505b50905060005b8451811015610b2657602080820286010151610b0190602080840287010151610483565b828281518110610b1357610b13611eb7565b6020908102919091010152600101610add565b509392505050565b610b36610fb7565b610b4060006110a8565b565b600460205260009081526040902080546001820180546001600160a01b039092169291610b6e90611e4e565b80601f0160208091040260200160405190810160405280929190818152602001828054610b9a90611e4e565b8015610be75780601f10610bbc57610100808354040283529160200191610be7565b820191906000526020600020905b815481529060010190602001808311610bca57829003601f168201915b505050505090806002018054610bfc90611e4e565b80601f0160208091040260200160405190810160405280929190818152602001828054610c2890611e4e565b8015610c755780601f10610c4a57610100808354040283529160200191610c75565b820191906000526020600020905b815481529060010190602001808311610c5857829003601f168201915b50505050600383015460049093015491929160ff16905085565b6000858152600460205260409020546001600160a01b03163314610cf55760405162461bcd60e51b815260206004820152601a60248201527f4f6e6c7920746561636865722063616e206164642062617463680000000000006044820152606401610594565b6000858152600460208190526040909120015460ff16610d575760405162461bcd60e51b815260206004820152601460248201527f436f75727365206973206e6f74206163746976650000000000000000000000006044820152606401610594565b818310610da65760405162461bcd60e51b815260206004820152601260248201527f496e76616c69642074696d652072616e676500000000000000000000000000006044820152606401610594565b6040805160a081018252938452602080850193845284820192835260006060860181815260016080880181815299835260058452848320988352979092529190912093518455915193830193909355915160028201559051600382015590516004909101805460ff1916911515919091179055565b610e26338383611107565b5050565b6007805460009182919082610e3e83611e9e565b909155506040805160a08101825233815260208082018881528284018890526060830185905260016080840181905260008681526004909352939091208251815473ffffffffffffffffffffffffffffffffffffffff19166001600160a01b03909116178155905193945090929091820190610eba9082611f19565b5060408201516002820190610ecf9082611f19565b50606082015160038201556080909101516004909101805460ff19169115159190911790559392505050565b336001600160a01b0386168114801590610f3b57506001600160a01b0380871660009081526001602090815260408083209385168352929052205460ff16155b15610f6c5760405163711bec9160e11b81526001600160a01b03808316600483015287166024820152604401610594565b610a59868686868661119d565b610f81610fb7565b6001600160a01b038116610fab57604051631e4fbdf760e01b815260006004820152602401610594565b610fb4816110a8565b50565b6003546001600160a01b03163314610b405760405163118cdaa760e01b8152336004820152602401610594565b6001600160a01b03841661100e57604051632bfa23e760e11b815260006004820152602401610594565b60408051600180825260208201869052818301908152606082018590526080820190925290610a5960008784848761122b565b6001600160a01b03841661106b57604051632bfa23e760e11b815260006004820152602401610594565b6001600160a01b03851661109457604051626a0d4560e21b815260006004820152602401610594565b6110a1858585858561122b565b5050505050565b600380546001600160a01b0383811673ffffffffffffffffffffffffffffffffffffffff19831681179093556040519116919082907f8be0079c531659141344cd1fd0a4f28419497f9722a3daafe3b4186f6b6457e090600090a35050565b6001600160a01b0382166111305760405162ced3e160e81b815260006004820152602401610594565b6001600160a01b03838116600081815260016020908152604080832094871680845294825291829020805460ff191686151590811790915591519182527f17307eab39ab6107e8899845ad3d59bd9653f200f220920489ca2b5937696c31910160405180910390a3505050565b6001600160a01b0384166111c757604051632bfa23e760e11b815260006004820152602401610594565b6001600160a01b0385166111f057604051626a0d4560e21b815260006004820152602401610594565b60408051600180825260208201869052818301908152606082018590526080820190925290611222878784848761122b565b50505050505050565b6112378585858561127e565b6001600160a01b038416156110a1578251339060010361127057602084810151908401516112698389898585896113a5565b5050610a59565b610a598187878787876114c9565b6001600160a01b038416156113935760005b8251811015611391576001600160a01b038416156113895760008382815181106112bc576112bc611eb7565b60209081029190910181015160008181526006835260408082206001600160a01b038b1683528452908190208151606081018352815481526001820154948101949094526002015460ff16158015918401919091529092506113865760405162461bcd60e51b815260206004820152602a60248201527f436f6d706c6574656420636f75727365204e46542063616e6e6f74206265207460448201527f72616e73666572726564000000000000000000000000000000000000000000006064820152608401610594565b50505b600101611290565b505b61139f848484846115b2565b50505050565b6001600160a01b0384163b15610a595760405163f23a6e6160e01b81526001600160a01b0385169063f23a6e61906113e99089908990889088908890600401611fd8565b6020604051808303816000875af1925050508015611424575060408051601f3d908101601f1916820190925261142191810190612020565b60015b61148d573d808015611452576040519150601f19603f3d011682016040523d82523d6000602084013e611457565b606091505b50805160000361148557604051632bfa23e760e11b81526001600160a01b0386166004820152602401610594565b805181602001fd5b6001600160e01b0319811663f23a6e6160e01b1461122257604051632bfa23e760e11b81526001600160a01b0386166004820152602401610594565b6001600160a01b0384163b15610a595760405163bc197c8160e01b81526001600160a01b0385169063bc197c819061150d908990899088908890889060040161203d565b6020604051808303816000875af1925050508015611548575060408051601f3d908101601f1916820190925261154591810190612020565b60015b611576573d808015611452576040519150601f19603f3d011682016040523d82523d6000602084013e611457565b6001600160e01b0319811663bc197c8160e01b1461122257604051632bfa23e760e11b81526001600160a01b0386166004820152602401610594565b80518251146115e15781518151604051635b05999160e01b815260048101929092526024820152604401610594565b3360005b83518110156116e7576020818102858101820151908501909101516001600160a01b03881615611698576000828152602081815260408083206001600160a01b038c16845290915290205481811015611671576040516303dee4c560e01b81526001600160a01b038a166004820152602481018290526044810183905260648101849052608401610594565b6000838152602081815260408083206001600160a01b038d16845290915290209082900390555b6001600160a01b038716156116dd576000828152602081815260408083206001600160a01b038b168452909152812080548392906116d79084906120a0565b90915550505b50506001016115e5565b5082516001036117685760208301516000906020840151909150856001600160a01b0316876001600160a01b0316846001600160a01b03167fc3d58168c5ae7397731d063d5bbf3d657854427343f4c083240f7aacaa2d0f628585604051611759929190918252602082015260400190565b60405180910390a450506110a1565b836001600160a01b0316856001600160a01b0316826001600160a01b03167f4a39dc06d4c0dbc64b70af90fd698a233a518aa5d07e595d983b8c0526c8f7fb86866040516117b79291906120b3565b60405180910390a45050505050565b80356001600160a01b03811681146117dd57600080fd5b919050565b600080604083850312156117f557600080fd5b6117fe836117c6565b946020939093013593505050565b6001600160e01b031981168114610fb457600080fd5b60006020828403121561183457600080fd5b813561183f8161180c565b9392505050565b60006020828403121561185857600080fd5b61183f826117c6565b60008060006060848603121561187657600080fd5b83359250611886602085016117c6565b929592945050506040919091013590565b6000602082840312156118a957600080fd5b5035919050565b6000815180845260005b818110156118d6576020818501810151868301820152016118ba565b506000602082860101526020601f19601f83011685010191505092915050565b60208152600061183f60208301846118b0565b6000806040838503121561191c57600080fd5b8235915061192c602084016117c6565b90509250929050565b60008060006060848603121561194a57600080fd5b611953846117c6565b95602085013595506040909401359392505050565b634e487b7160e01b600052604160045260246000fd5b604051601f8201601f1916810167ffffffffffffffff811182821017156119a7576119a7611968565b604052919050565b600067ffffffffffffffff8211156119c9576119c9611968565b5060051b60200190565b600082601f8301126119e457600080fd5b81356119f76119f2826119af565b61197e565b8082825260208201915060208360051b860101925085831115611a1957600080fd5b602085015b83811015611a36578035835260209283019201611a1e565b5095945050505050565b600082601f830112611a5157600080fd5b81356020830160008067ffffffffffffffff841115611a7257611a72611968565b50601f8301601f1916602001611a878161197e565b915050828152858383011115611a9c57600080fd5b82826020830137600092810160200192909252509392505050565b600080600080600060a08688031215611acf57600080fd5b611ad8866117c6565b9450611ae6602087016117c6565b9350604086013567ffffffffffffffff811115611b0257600080fd5b611b0e888289016119d3565b935050606086013567ffffffffffffffff811115611b2b57600080fd5b611b37888289016119d3565b925050608086013567ffffffffffffffff811115611b5457600080fd5b611b6088828901611a40565b9150509295509295909350565b60008060408385031215611b8057600080fd5b823567ffffffffffffffff811115611b9757600080fd5b8301601f81018513611ba857600080fd5b8035611bb66119f2826119af565b8082825260208201915060208360051b850101925087831115611bd857600080fd5b6020840193505b82841015611c0157611bf0846117c6565b825260209384019390910190611bdf565b9450505050602083013567ffffffffffffffff811115611c2057600080fd5b611c2c858286016119d3565b9150509250929050565b600081518084526020840193506020830160005b82811015611c68578151865260209586019590910190600101611c4a565b5093949350505050565b60208152600061183f6020830184611c36565b60008060408385031215611c9857600080fd5b50508035926020909101359150565b6001600160a01b038616815260a060208201526000611cc960a08301876118b0565b8281036040840152611cdb81876118b0565b606084019590955250509015156080909101529392505050565b600080600080600060a08688031215611d0d57600080fd5b505083359560208501359550604085013594606081013594506080013592509050565b60008060408385031215611d4357600080fd5b611d4c836117c6565b915060208301358015158114611d6157600080fd5b809150509250929050565b60008060408385031215611d7f57600080fd5b823567ffffffffffffffff811115611d9657600080fd5b611da285828601611a40565b925050602083013567ffffffffffffffff811115611dbf57600080fd5b611c2c85828601611a40565b60008060408385031215611dde57600080fd5b611de7836117c6565b915061192c602084016117c6565b600080600080600060a08688031215611e0d57600080fd5b611e16866117c6565b9450611e24602087016117c6565b93506040860135925060608601359150608086013567ffffffffffffffff811115611b5457600080fd5b600181811c90821680611e6257607f821691505b602082108103611e8257634e487b7160e01b600052602260045260246000fd5b50919050565b634e487b7160e01b600052601160045260246000fd5b600060018201611eb057611eb0611e88565b5060010190565b634e487b7160e01b600052603260045260246000fd5b601f821115611f1457806000526020600020601f840160051c81016020851015611ef45750805b601f840160051c820191505b818110156110a15760008155600101611f00565b505050565b815167ffffffffffffffff811115611f3357611f33611968565b611f4781611f418454611e4e565b84611ecd565b6020601f821160018114611f7b5760008315611f635750848201515b600019600385901b1c1916600184901b1784556110a1565b600084815260208120601f198516915b82811015611fab5787850151825560209485019460019092019101611f8b565b5084821015611fc95786840151600019600387901b60f8161c191681555b50505050600190811b01905550565b6001600160a01b03861681526001600160a01b038516602082015283604082015282606082015260a06080820152600061201560a08301846118b0565b979650505050505050565b60006020828403121561203257600080fd5b815161183f8161180c565b6001600160a01b03861681526001600160a01b038516602082015260a06040820152600061206e60a0830186611c36565b82810360608401526120808186611c36565b9050828103608084015261209481856118b0565b98975050505050505050565b808201808211156104a5576104a5611e88565b6040815260006120c66040830185611c36565b82810360208401526120d88185611c36565b9594505050505056fea164736f6c634300081c000a68747470733a2f2f796f75722d6d657461646174612d7572692f7b69647d2e6a736f6e",
  "linkReferences": {},
  "deployedLinkReferences": {}
}