{"abi":[{"type":"constructor","inputs":[{"name":"_courseCertificate","type":"address","internalType":"address"},{"name":"_honeyToken","type":"address","internalType":"address"}],"stateMutability":"nonpayable"},{"type":"function","name":"auctions","inputs":[{"name":"","type":"uint256","internalType":"uint256"},{"name":"","type":"uint256","internalType":"uint256"}],"outputs":[{"name":"courseId","type":"uint256","internalType":"uint256"},{"name":"batchId","type":"uint256","internalType":"uint256"},{"name":"startTime","type":"uint256","internalType":"uint256"},{"name":"endTime","type":"uint256","internalType":"uint256"},{"name":"minPrice","type":"uint256","internalType":"uint256"},{"name":"isActive","type":"bool","internalType":"bool"}],"stateMutability":"view"},{"type":"function","name":"bids","inputs":[{"name":"","type":"uint256","internalType":"uint256"},{"name":"","type":"uint256","internalType":"uint256"},{"name":"","type":"uint256","internalType":"uint256"}],"outputs":[{"name":"bidder","type":"address","internalType":"address"},{"name":"bidTime","type":"uint256","internalType":"uint256"},{"name":"amount","type":"uint256","internalType":"uint256"}],"stateMutability":"view"},{"type":"function","name":"courseCertificate","inputs":[],"outputs":[{"name":"","type":"address","internalType":"contract CourseCertificate"}],"stateMutability":"view"},{"type":"function","name":"createAuction","inputs":[{"name":"courseId","type":"uint256","internalType":"uint256"},{"name":"batchId","type":"uint256","internalType":"uint256"},{"name":"startTime","type":"uint256","internalType":"uint256"},{"name":"endTime","type":"uint256","internalType":"uint256"},{"name":"minPrice","type":"uint256","internalType":"uint256"}],"outputs":[],"stateMutability":"nonpayable"},{"type":"function","name":"finalizeAuction","inputs":[{"name":"courseId","type":"uint256","internalType":"uint256"},{"name":"batchId","type":"uint256","internalType":"uint256"}],"outputs":[],"stateMutability":"nonpayable"},{"type":"function","name":"getBids","inputs":[{"name":"courseId","type":"uint256","internalType":"uint256"},{"name":"batchId","type":"uint256","internalType":"uint256"}],"outputs":[{"name":"","type":"tuple[]","internalType":"struct CourseAuction.Bid[]","components":[{"name":"bidder","type":"address","internalType":"address"},{"name":"bidTime","type":"uint256","internalType":"uint256"},{"name":"amount","type":"uint256","internalType":"uint256"}]}],"stateMutability":"view"},{"type":"function","name":"honeyToken","inputs":[],"outputs":[{"name":"","type":"address","internalType":"contract HoneyToken"}],"stateMutability":"view"},{"type":"function","name":"placeBid","inputs":[{"name":"courseId","type":"uint256","internalType":"uint256"},{"name":"batchId","type":"uint256","internalType":"uint256"},{"name":"amount","type":"uint256","internalType":"uint256"}],"outputs":[],"stateMutability":"nonpayable"},{"type":"event","name":"AuctionCreated","inputs":[{"name":"courseId","type":"uint256","indexed":false,"internalType":"uint256"},{"name":"batchId","type":"uint256","indexed":false,"internalType":"uint256"},{"name":"startTime","type":"uint256","indexed":false,"internalType":"uint256"},{"name":"endTime","type":"uint256","indexed":false,"internalType":"uint256"},{"name":"minPrice","type":"uint256","indexed":false,"internalType":"uint256"}],"anonymous":false},{"type":"event","name":"AuctionFinalized","inputs":[{"name":"courseId","type":"uint256","indexed":false,"internalType":"uint256"},{"name":"batchId","type":"uint256","indexed":false,"internalType":"uint256"}],"anonymous":false},{"type":"event","name":"BidPlaced","inputs":[{"name":"courseId","type":"uint256","indexed":false,"internalType":"uint256"},{"name":"batchId","type":"uint256","indexed":false,"internalType":"uint256"},{"name":"bidder","type":"address","indexed":false,"internalType":"address"},{"name":"bidTime","type":"uint256","indexed":false,"internalType":"uint256"},{"name":"amount","type":"uint256","indexed":false,"internalType":"uint256"}],"anonymous":false}],"bytecode":{"object":"0x6080604052348015600f57600080fd5b506040516110a53803806110a5833981016040819052602c916077565b600080546001600160a01b039384166001600160a01b0319918216179091556001805492909316911617905560a5565b80516001600160a01b0381168114607257600080fd5b919050565b60008060408385031215608957600080fd5b609083605c565b9150609c60208401605c565b90509250929050565b610ff1806100b46000396000f3fe608060405234801561001057600080fd5b50600436106100885760003560e01c80638a157df31161005b5780638a157df314610105578063ca5314d814610118578063e5bff23e14610150578063fc23d5f01461016357600080fd5b8063115a93c81461008d57806329831f5d146100a25780635e62be25146100d257806386514e26146100e5575b600080fd5b6100a061009b366004610ca5565b6101e2565b005b6001546100b5906001600160a01b031681565b6040516001600160a01b0390911681526020015b60405180910390f35b6100a06100e0366004610cc7565b610844565b6100f86100f3366004610ca5565b610a77565b6040516100c99190610cf3565b6100a0610113366004610d58565b610b0f565b61012b610126366004610cc7565b610c4b565b604080516001600160a01b0390941684526020840192909252908201526060016100c9565b6000546100b5906001600160a01b031681565b6101b3610171366004610ca5565b60026020818152600093845260408085209091529183529120805460018201549282015460038301546004840154600590940154929493919290919060ff1686565b6040805196875260208701959095529385019290925260608401526080830152151560a082015260c0016100c9565b60008054604051634b7cbce960e11b8152600481018590528492916001600160a01b0316906396f979d290602401600060405180830381865afa15801561022d573d6000803e3d6000fd5b505050506040513d6000823e601f3d908101601f191682016040526102559190810190610e63565b505050509050806001600160a01b0316336001600160a01b0316146102d45760405162461bcd60e51b815260206004820152602a60248201527f4f6e6c7920636f7572736520746561636865722063616e2063616c6c207468696044820152693990333ab731ba34b7b760b11b60648201526084015b60405180910390fd5b60008481526002602090815260408083208684529091529020600581015460ff166103365760405162461bcd60e51b815260206004820152601260248201527141756374696f6e206e6f742061637469766560701b60448201526064016102cb565b60008581526003602090815260408083208784529091529020805461038e5760405162461bcd60e51b815260206004820152600e60248201526d139bc8189a591cc81c1b1858d95960921b60448201526064016102cb565b60005b815461039f90600190610f1e565b8110156105735760005b82546001906103b9908490610f1e565b6103c39190610f1e565b81101561056a57826103d6826001610f31565b815481106103e6576103e6610f44565b90600052602060002090600302016002015483828154811061040a5761040a610f44565b906000526020600020906003020160020154101561056257600083828154811061043657610436610f44565b600091825260209182902060408051606081018252600390930290910180546001600160a01b0316835260018082015494840194909452600201549082015291508490610484908490610f31565b8154811061049457610494610f44565b90600052602060002090600302018483815481106104b4576104b4610f44565b60009182526020909120825460039092020180546001600160a01b0319166001600160a01b039092169190911781556001808301548183015560029283015492909101919091558190859061050a908590610f31565b8154811061051a5761051a610f44565b600091825260209182902083516003929092020180546001600160a01b0319166001600160a01b03909216919091178155908201516001820155604090910151600290910155505b6001016103a9565b50600101610391565b5060008054604051635d47964b60e01b815260048101899052602481018890526001600160a01b0390911690635d47964b9060440160a060405180830381865afa1580156105c5573d6000803e3d6000fd5b505050506040513d601f19601f820116820180604052508101906105e99190610f5a565b509350505050600082805490508210610603578254610605565b815b905060005b818110156106bf5760005484546001600160a01b0390911690631af4e3e09086908490811061063b5761063b610f44565b600091825260209091206003909102015460405160e083901b6001600160e01b03191681526001600160a01b039091166004820152602481018c9052604481018b9052606401600060405180830381600087803b15801561069b57600080fd5b505af11580156106af573d6000803e3d6000fd5b50506001909201915061060a9050565b50805b83548110156107f45760015484546001600160a01b039091169063a9059cbb908690849081106106f4576106f4610f44565b600091825260209091206003909102015486546001600160a01b039091169087908590811061072557610725610f44565b60009182526020909120600260039092020101546040516001600160e01b031960e085901b1681526001600160a01b03909216600483015260248201526044016020604051808303816000875af1158015610784573d6000803e3d6000fd5b505050506040513d601f19601f820116820180604052508101906107a89190610f99565b6107ec5760405162461bcd60e51b8152602060048201526015602482015274151bdad95b88151c985b9cd9995c8819985a5b1959605a1b60448201526064016102cb565b6001016106c2565b5060058401805460ff1916905560408051898152602081018990527f878175d6894f965b46049cdadea9efcc83bffb98ab4b9cb359e0c67757944778910160405180910390a15050505050505050565b60008381526002602090815260408083208584529091529020600581015460ff166108a95760405162461bcd60e51b815260206004820152601560248201527441756374696f6e206973206e6f742061637469766560581b60448201526064016102cb565b80600401548210156108eb5760405162461bcd60e51b815260206004820152600b60248201526a42696420746f6f206c6f7760a81b60448201526064016102cb565b6001546040516323b872dd60e01b8152336004820152306024820152604481018490526001600160a01b03909116906323b872dd906064016020604051808303816000875af1158015610942573d6000803e3d6000fd5b505050506040513d601f19601f820116820180604052508101906109669190610f99565b6109aa5760405162461bcd60e51b8152602060048201526015602482015274151bdad95b88151c985b9cd9995c8819985a5b1959605a1b60448201526064016102cb565b6000848152600360208181526040808420878552825280842081516060808201845233808352428387018181528487018c8152865460018082018955978c529a89902095519a90990290940180546001600160a01b0319166001600160a01b03909a16999099178955925193880193909355945160029096019590955581518981529283018890529082015290810191909152608081018390527f34a9aee5f476df7f218e672a92a2cb667ee9908bc59d1b2fa2b2a882f715775d9060a00160405180910390a150505050565b60008281526003602090815260408083208484528252808320805482518185028101850190935280835260609492939192909184015b82821015610b02576000848152602090819020604080516060810182526003860290920180546001600160a01b0316835260018082015484860152600290910154918301919091529083529092019101610aad565b5050505090505b92915050565b828211610b685760405162461bcd60e51b815260206004820152602160248201527f456e642074696d65206d7573742062652061667465722073746172742074696d6044820152606560f81b60648201526084016102cb565b6040805160c08101825286815260208082018781528284018781526060840187815260808501878152600160a0870181815260008e815260028089528a82208f8352909852899020975188559451908701559151938501939093559151600384015590516004830155516005909101805491151560ff19909216919091179055517f8867cbc05eea5a895d1a2e08b969e1284f9aa3f38535dacee9b49baa35c61da790610c3c9087908790879087908790948552602085019390935260408401919091526060830152608082015260a00190565b60405180910390a15050505050565b60036020528260005260406000206020528160005260406000208181548110610c7357600080fd5b60009182526020909120600390910201805460018201546002909201546001600160a01b039091169450909250905083565b60008060408385031215610cb857600080fd5b50508035926020909101359150565b600080600060608486031215610cdc57600080fd5b505081359360208301359350604090920135919050565b602080825282518282018190526000918401906040840190835b81811015610d4d57835180516001600160a01b03168452602080820151818601526040918201519185019190915290930192606090920191600101610d0d565b509095945050505050565b600080600080600060a08688031215610d7057600080fd5b505083359560208501359550604085013594606081013594506080013592509050565b634e487b7160e01b600052604160045260246000fd5b600082601f830112610dba57600080fd5b815167ffffffffffffffff811115610dd457610dd4610d93565b604051601f8201601f19908116603f0116810167ffffffffffffffff81118282101715610e0357610e03610d93565b604052818152838201602001851015610e1b57600080fd5b60005b82811015610e3a57602081860181015183830182015201610e1e565b506000918101602001919091529392505050565b80518015158114610e5e57600080fd5b919050565b600080600080600060a08688031215610e7b57600080fd5b85516001600160a01b0381168114610e9257600080fd5b602087015190955067ffffffffffffffff811115610eaf57600080fd5b610ebb88828901610da9565b945050604086015167ffffffffffffffff811115610ed857600080fd5b610ee488828901610da9565b60608801519094509250610efc905060808701610e4e565b90509295509295909350565b634e487b7160e01b600052601160045260246000fd5b81810381811115610b0957610b09610f08565b80820180821115610b0957610b09610f08565b634e487b7160e01b600052603260045260246000fd5b600080600080600060a08688031215610f7257600080fd5b855160208701516040880151606089015192975090955093509150610efc60808701610e4e565b600060208284031215610fab57600080fd5b610fb482610e4e565b939250505056fea264697066735822122015547cebb6a8f243d9df50516182212b26a1c8cc8fe43c0f233372068224fac664736f6c634300081c0033","linkReferences":{}},"methodIdentifiers":{"auctions(uint256,uint256)":"fc23d5f0","bids(uint256,uint256,uint256)":"ca5314d8","courseCertificate()":"e5bff23e","createAuction(uint256,uint256,uint256,uint256,uint256)":"8a157df3","finalizeAuction(uint256,uint256)":"115a93c8","getBids(uint256,uint256)":"86514e26","honeyToken()":"29831f5d","placeBid(uint256,uint256,uint256)":"5e62be25"},"id":41}