{"abi":[{"type":"constructor","inputs":[],"stateMutability":"nonpayable"},{"type":"function","name":"addCourseBatch","inputs":[{"name":"courseId","type":"uint256","internalType":"uint256"},{"name":"batchId","type":"uint256","internalType":"uint256"},{"name":"startTime","type":"uint256","internalType":"uint256"},{"name":"endTime","type":"uint256","internalType":"uint256"},{"name":"maxStudents","type":"uint256","internalType":"uint256"}],"outputs":[],"stateMutability":"nonpayable"},{"type":"function","name":"auctionContract","inputs":[],"outputs":[{"name":"","type":"address","internalType":"address"}],"stateMutability":"view"},{"type":"function","name":"balanceOf","inputs":[{"name":"account","type":"address","internalType":"address"},{"name":"id","type":"uint256","internalType":"uint256"}],"outputs":[{"name":"","type":"uint256","internalType":"uint256"}],"stateMutability":"view"},{"type":"function","name":"balanceOfBatch","inputs":[{"name":"accounts","type":"address[]","internalType":"address[]"},{"name":"ids","type":"uint256[]","internalType":"uint256[]"}],"outputs":[{"name":"","type":"uint256[]","internalType":"uint256[]"}],"stateMutability":"view"},{"type":"function","name":"batches","inputs":[{"name":"","type":"uint256","internalType":"uint256"},{"name":"","type":"uint256","internalType":"uint256"}],"outputs":[{"name":"startTime","type":"uint256","internalType":"uint256"},{"name":"endTime","type":"uint256","internalType":"uint256"},{"name":"maxStudents","type":"uint256","internalType":"uint256"},{"name":"enrolledStudents","type":"uint256","internalType":"uint256"},{"name":"isActive","type":"bool","internalType":"bool"}],"stateMutability":"view"},{"type":"function","name":"courses","inputs":[{"name":"","type":"uint256","internalType":"uint256"}],"outputs":[{"name":"teacher","type":"address","internalType":"address"},{"name":"name","type":"string","internalType":"string"},{"name":"description","type":"string","internalType":"string"},{"name":"courseId","type":"uint256","internalType":"uint256"},{"name":"isActive","type":"bool","internalType":"bool"}],"stateMutability":"view"},{"type":"function","name":"createCourse","inputs":[{"name":"name","type":"string","internalType":"string"},{"name":"description","type":"string","internalType":"string"}],"outputs":[{"name":"","type":"uint256","internalType":"uint256"}],"stateMutability":"nonpayable"},{"type":"function","name":"getNFTLevel","inputs":[{"name":"courseId","type":"uint256","internalType":"uint256"},{"name":"student","type":"address","internalType":"address"}],"outputs":[{"name":"level","type":"uint256","internalType":"uint256"},{"name":"lastUpgradeTime","type":"uint256","internalType":"uint256"},{"name":"isCompleted","type":"bool","internalType":"bool"}],"stateMutability":"view"},{"type":"function","name":"isApprovedForAll","inputs":[{"name":"account","type":"address","internalType":"address"},{"name":"operator","type":"address","internalType":"address"}],"outputs":[{"name":"","type":"bool","internalType":"bool"}],"stateMutability":"view"},{"type":"function","name":"mintForWinner","inputs":[{"name":"winner","type":"address","internalType":"address"},{"name":"courseId","type":"uint256","internalType":"uint256"},{"name":"batchId","type":"uint256","internalType":"uint256"}],"outputs":[],"stateMutability":"nonpayable"},{"type":"function","name":"nftLevels","inputs":[{"name":"","type":"uint256","internalType":"uint256"},{"name":"","type":"address","internalType":"address"}],"outputs":[{"name":"level","type":"uint256","internalType":"uint256"},{"name":"lastUpgradeTime","type":"uint256","internalType":"uint256"},{"name":"isCompleted","type":"bool","internalType":"bool"}],"stateMutability":"view"},{"type":"function","name":"owner","inputs":[],"outputs":[{"name":"","type":"address","internalType":"address"}],"stateMutability":"view"},{"type":"function","name":"renounceOwnership","inputs":[],"outputs":[],"stateMutability":"nonpayable"},{"type":"function","name":"safeBatchTransferFrom","inputs":[{"name":"from","type":"address","internalType":"address"},{"name":"to","type":"address","internalType":"address"},{"name":"ids","type":"uint256[]","internalType":"uint256[]"},{"name":"values","type":"uint256[]","internalType":"uint256[]"},{"name":"data","type":"bytes","internalType":"bytes"}],"outputs":[],"stateMutability":"nonpayable"},{"type":"function","name":"safeTransferFrom","inputs":[{"name":"from","type":"address","internalType":"address"},{"name":"to","type":"address","internalType":"address"},{"name":"id","type":"uint256","internalType":"uint256"},{"name":"value","type":"uint256","internalType":"uint256"},{"name":"data","type":"bytes","internalType":"bytes"}],"outputs":[],"stateMutability":"nonpayable"},{"type":"function","name":"setApprovalForAll","inputs":[{"name":"operator","type":"address","internalType":"address"},{"name":"approved","type":"bool","internalType":"bool"}],"outputs":[],"stateMutability":"nonpayable"},{"type":"function","name":"setAuctionContract","inputs":[{"name":"_auctionContract","type":"address","internalType":"address"}],"outputs":[],"stateMutability":"nonpayable"},{"type":"function","name":"supportsInterface","inputs":[{"name":"interfaceId","type":"bytes4","internalType":"bytes4"}],"outputs":[{"name":"","type":"bool","internalType":"bool"}],"stateMutability":"view"},{"type":"function","name":"transferOwnership","inputs":[{"name":"newOwner","type":"address","internalType":"address"}],"outputs":[],"stateMutability":"nonpayable"},{"type":"function","name":"upgradeNFT","inputs":[{"name":"courseId","type":"uint256","internalType":"uint256"},{"name":"student","type":"address","internalType":"address"},{"name":"newLevel","type":"uint256","internalType":"uint256"}],"outputs":[],"stateMutability":"nonpayable"},{"type":"function","name":"uri","inputs":[{"name":"","type":"uint256","internalType":"uint256"}],"outputs":[{"name":"","type":"string","internalType":"string"}],"stateMutability":"view"},{"type":"event","name":"ApprovalForAll","inputs":[{"name":"account","type":"address","indexed":true,"internalType":"address"},{"name":"operator","type":"address","indexed":true,"internalType":"address"},{"name":"approved","type":"bool","indexed":false,"internalType":"bool"}],"anonymous":false},{"type":"event","name":"NFTUpgraded","inputs":[{"name":"tokenId","type":"uint256","indexed":true,"internalType":"uint256"},{"name":"student","type":"address","indexed":true,"internalType":"address"},{"name":"oldLevel","type":"uint256","indexed":false,"internalType":"uint256"},{"name":"newLevel","type":"uint256","indexed":false,"internalType":"uint256"},{"name":"isCompleted","type":"bool","indexed":false,"internalType":"bool"}],"anonymous":false},{"type":"event","name":"OwnershipTransferred","inputs":[{"name":"previousOwner","type":"address","indexed":true,"internalType":"address"},{"name":"newOwner","type":"address","indexed":true,"internalType":"address"}],"anonymous":false},{"type":"event","name":"TransferBatch","inputs":[{"name":"operator","type":"address","indexed":true,"internalType":"address"},{"name":"from","type":"address","indexed":true,"internalType":"address"},{"name":"to","type":"address","indexed":true,"internalType":"address"},{"name":"ids","type":"uint256[]","indexed":false,"internalType":"uint256[]"},{"name":"values","type":"uint256[]","indexed":false,"internalType":"uint256[]"}],"anonymous":false},{"type":"event","name":"TransferSingle","inputs":[{"name":"operator","type":"address","indexed":true,"internalType":"address"},{"name":"from","type":"address","indexed":true,"internalType":"address"},{"name":"to","type":"address","indexed":true,"internalType":"address"},{"name":"id","type":"uint256","indexed":false,"internalType":"uint256"},{"name":"value","type":"uint256","indexed":false,"internalType":"uint256"}],"anonymous":false},{"type":"event","name":"URI","inputs":[{"name":"value","type":"string","indexed":false,"internalType":"string"},{"name":"id","type":"uint256","indexed":true,"internalType":"uint256"}],"anonymous":false},{"type":"error","name":"ERC1155InsufficientBalance","inputs":[{"name":"sender","type":"address","internalType":"address"},{"name":"balance","type":"uint256","internalType":"uint256"},{"name":"needed","type":"uint256","internalType":"uint256"},{"name":"tokenId","type":"uint256","internalType":"uint256"}]},{"type":"error","name":"ERC1155InvalidApprover","inputs":[{"name":"approver","type":"address","internalType":"address"}]},{"type":"error","name":"ERC1155InvalidArrayLength","inputs":[{"name":"idsLength","type":"uint256","internalType":"uint256"},{"name":"valuesLength","type":"uint256","internalType":"uint256"}]},{"type":"error","name":"ERC1155InvalidOperator","inputs":[{"name":"operator","type":"address","internalType":"address"}]},{"type":"error","name":"ERC1155InvalidReceiver","inputs":[{"name":"receiver","type":"address","internalType":"address"}]},{"type":"error","name":"ERC1155InvalidSender","inputs":[{"name":"sender","type":"address","internalType":"address"}]},{"type":"error","name":"ERC1155MissingApprovalForAll","inputs":[{"name":"operator","type":"address","internalType":"address"},{"name":"owner","type":"address","internalType":"address"}]},{"type":"error","name":"OwnableInvalidOwner","inputs":[{"name":"owner","type":"address","internalType":"address"}]},{"type":"error","name":"OwnableUnauthorizedAccount","inputs":[{"name":"account","type":"address","internalType":"address"}]}],"bytecode":{"object":"0x608060405234801561001057600080fd5b503360405180606001604052806023815260200161224d6023913961003481610077565b506001600160a01b03811661006357604051631e4fbdf760e01b81526000600482015260240160405180910390fd5b61006c81610087565b506000600755610236565b60026100838282610178565b5050565b600380546001600160a01b038381166001600160a01b0319831681179093556040519116919082907f8be0079c531659141344cd1fd0a4f28419497f9722a3daafe3b4186f6b6457e090600090a35050565b634e487b7160e01b600052604160045260246000fd5b600181811c9082168061010357607f821691505b60208210810361012357634e487b7160e01b600052602260045260246000fd5b50919050565b601f82111561017357806000526020600020601f840160051c810160208510156101505750805b601f840160051c820191505b81811015610170576000815560010161015c565b50505b505050565b81516001600160401b03811115610191576101916100d9565b6101a58161019f84546100ef565b84610129565b6020601f8211600181146101d957600083156101c15750848201515b600019600385901b1c1916600184901b178455610170565b600084815260208120601f198516915b8281101561020957878501518255602094850194600190920191016101e9565b50848210156102275786840151600019600387901b60f8161c191681555b50505050600190811b01905550565b612008806102456000396000f3fe608060405234801561001057600080fd5b50600436106101365760003560e01c80635d47964b116100b8578063a22cb4651161007c578063a22cb4651461037e578063a26a795314610391578063bab261f0146103a4578063e985e9c5146103e1578063f242432a146103f4578063f2fde38b1461040757600080fd5b80635d47964b146102b9578063715018a61461032e5780638da5cb5b1461033657806396f979d214610347578063973de5661461036b57600080fd5b80630e89341c116100ff5780630e89341c146101d757806310fe8ede146101f75780631af4e3e0146102735780632eb2c2d6146102865780634e1273f41461029957600080fd5b8062fdd58e1461013b57806301ffc9a714610161578063023924c7146101845780630ab8afac146101995780630c9c1843146101c4575b600080fd5b61014e6101493660046116e5565b61041a565b6040519081526020015b60405180910390f35b61017461016f366004611725565b610442565b6040519015158152602001610158565b610197610192366004611749565b610492565b005b6008546101ac906001600160a01b031681565b6040516001600160a01b039091168152602001610158565b6101976101d2366004611764565b6104bc565b6101ea6101e536600461179a565b6106cc565b60405161015891906117f9565b61025661020536600461180c565b60009182526006602090815260408084206001600160a01b039390931684529181529181902081516060810183528154808252600183015494820185905260029092015460ff161515920182905292565b604080519384526020840192909252151590820152606001610158565b610197610281366004611838565b610760565b6101976102943660046119b7565b610930565b6102ac6102a7366004611a6a565b610997565b6040516101589190611b6d565b6103046102c7366004611b80565b6005602090815260009283526040808420909152908252902080546001820154600283015460038401546004909401549293919290919060ff1685565b6040805195865260208601949094529284019190915260608301521515608082015260a001610158565b610197610a63565b6003546001600160a01b03166101ac565b61035a61035536600461179a565b610a77565b604051610158959493929190611ba2565b610197610379366004611bf2565b610bc4565b61019761038c366004611c2d565b610d3c565b61014e61039f366004611c69565b610d4b565b6102566103b236600461180c565b600660209081526000928352604080842090915290825290208054600182015460029092015490919060ff1683565b6101746103ef366004611cc6565b610e0f565b610197610402366004611cf0565b610e3d565b610197610415366004611749565b610e9c565b6000818152602081815260408083206001600160a01b03861684529091529020545b92915050565b60006001600160e01b03198216636cdb3d1360e11b148061047357506001600160e01b031982166303a24d0760e21b145b8061043c57506301ffc9a760e01b6001600160e01b031983161461043c565b61049a610eda565b600880546001600160a01b0319166001600160a01b0392909216919091179055565b6000838152600460205260409020546001600160a01b031633146105275760405162461bcd60e51b815260206004820152601c60248201527f4f6e6c7920746561636865722063616e2075706772616465204e46540000000060448201526064015b60405180910390fd5b6000610533838561041a565b116105805760405162461bcd60e51b815260206004820152601d60248201527f53747564656e7420646f6573206e6f74206f776e2074686973204e4654000000604482015260640161051e565b60008381526006602090815260408083206001600160a01b03861684529091529020805482116106065760405162461bcd60e51b815260206004820152602b60248201527f4e6577206c6576656c206d75737420626520686967686572207468616e20637560448201526a1c9c995b9d081b195d995b60aa1b606482015260840161051e565b600281015460ff161561065b5760405162461bcd60e51b815260206004820152601860248201527f436f7572736520616c726561647920636f6d706c657465640000000000000000604482015260640161051e565b80548282554260018084019190915560028301805460ff191682179055604080518381526020810186905280820192909252516001600160a01b0386169187917f2a897456a15e9d352418193890ee00d3555d797fe71949dc9e4d65950c40e93f9181900360600190a35050505050565b6060600280546106db90611d48565b80601f016020809104026020016040519081016040528092919081815260200182805461070790611d48565b80156107545780601f1061072957610100808354040283529160200191610754565b820191906000526020600020905b81548152906001019060200180831161073757829003601f168201915b50505050509050919050565b6008546001600160a01b031633146107c65760405162461bcd60e51b815260206004820152602360248201527f4f6e6c792061756374696f6e20636f6e74726163742063616e2063616c6c207460448201526268697360e81b606482015260840161051e565b6000828152600460208190526040909120015460ff1661081f5760405162461bcd60e51b8152602060048201526014602482015273436f75727365206973206e6f742061637469766560601b604482015260640161051e565b600082815260056020908152604080832084845290915290206004015460ff166108815760405162461bcd60e51b81526020600482015260136024820152724261746368206973206e6f742061637469766560681b604482015260640161051e565b600082815260056020908152604080832084845290915290206002810154600390910154106108e25760405162461bcd60e51b815260206004820152600d60248201526c10985d18da081a5cc8199d5b1b609a1b604482015260640161051e565b6108fe8383600160405180602001604052806000815250610f07565b6000828152600560209081526040808320848452909152812060030180549161092683611d98565b9190505550505050565b336001600160a01b0386168114801590610951575061094f8682610e0f565b155b156109825760405163711bec9160e11b81526001600160a01b0380831660048301528716602482015260440161051e565b61098f8686868686610f64565b505050505050565b606081518351146109c85781518351604051635b05999160e01b81526004810192909252602482015260440161051e565b600083516001600160401b038111156109e3576109e361186b565b604051908082528060200260200182016040528015610a0c578160200160208202803683370190505b50905060005b8451811015610a5b57602080820286010151610a369060208084028701015161041a565b828281518110610a4857610a48611db1565b6020908102919091010152600101610a12565b509392505050565b610a6b610eda565b610a756000610fcb565b565b600460205260009081526040902080546001820180546001600160a01b039092169291610aa390611d48565b80601f0160208091040260200160405190810160405280929190818152602001828054610acf90611d48565b8015610b1c5780601f10610af157610100808354040283529160200191610b1c565b820191906000526020600020905b815481529060010190602001808311610aff57829003601f168201915b505050505090806002018054610b3190611d48565b80601f0160208091040260200160405190810160405280929190818152602001828054610b5d90611d48565b8015610baa5780601f10610b7f57610100808354040283529160200191610baa565b820191906000526020600020905b815481529060010190602001808311610b8d57829003601f168201915b50505050600383015460049093015491929160ff16905085565b6000858152600460205260409020546001600160a01b03163314610c2a5760405162461bcd60e51b815260206004820152601a60248201527f4f6e6c7920746561636865722063616e20616464206261746368000000000000604482015260640161051e565b6000858152600460208190526040909120015460ff16610c835760405162461bcd60e51b8152602060048201526014602482015273436f75727365206973206e6f742061637469766560601b604482015260640161051e565b818310610cc75760405162461bcd60e51b8152602060048201526012602482015271496e76616c69642074696d652072616e676560701b604482015260640161051e565b6040805160a081018252938452602080850193845284820192835260006060860181815260016080880181815299835260058452848320988352979092529190912093518455915193830193909355915160028201559051600382015590516004909101805460ff1916911515919091179055565b610d4733838361101d565b5050565b6007805460009182919082610d5f83611d98565b909155506040805160a0810182523381526020808201888152828401889052606083018590526001608084018190526000868152600490935293909120825181546001600160a01b0319166001600160a01b03909116178155905193945090929091820190610dce9082611e13565b5060408201516002820190610de39082611e13565b50606082015160038201556080909101516004909101805460ff19169115159190911790559392505050565b6001600160a01b03918216600090815260016020908152604080832093909416825291909152205460ff1690565b336001600160a01b0386168114801590610e5e5750610e5c8682610e0f565b155b15610e8f5760405163711bec9160e11b81526001600160a01b0380831660048301528716602482015260440161051e565b61098f86868686866110b3565b610ea4610eda565b6001600160a01b038116610ece57604051631e4fbdf760e01b81526000600482015260240161051e565b610ed781610fcb565b50565b6003546001600160a01b03163314610a755760405163118cdaa760e01b815233600482015260240161051e565b6001600160a01b038416610f3157604051632bfa23e760e11b81526000600482015260240161051e565b6040805160018082526020820186905281830190815260608201859052608082019092529061098f600087848487611141565b6001600160a01b038416610f8e57604051632bfa23e760e11b81526000600482015260240161051e565b6001600160a01b038516610fb757604051626a0d4560e21b81526000600482015260240161051e565b610fc48585858585611141565b5050505050565b600380546001600160a01b038381166001600160a01b0319831681179093556040519116919082907f8be0079c531659141344cd1fd0a4f28419497f9722a3daafe3b4186f6b6457e090600090a35050565b6001600160a01b0382166110465760405162ced3e160e81b81526000600482015260240161051e565b6001600160a01b03838116600081815260016020908152604080832094871680845294825291829020805460ff191686151590811790915591519182527f17307eab39ab6107e8899845ad3d59bd9653f200f220920489ca2b5937696c31910160405180910390a3505050565b6001600160a01b0384166110dd57604051632bfa23e760e11b81526000600482015260240161051e565b6001600160a01b03851661110657604051626a0d4560e21b81526000600482015260240161051e565b604080516001808252602082018690528183019081526060820185905260808201909252906111388787848487611141565b50505050505050565b61114d85858585611194565b6001600160a01b03841615610fc45782513390600103611186576020848101519084015161117f8389898585896112a8565b505061098f565b61098f8187878787876113cc565b6001600160a01b038416156112965760005b8251811015611294576001600160a01b0384161561128c5760008382815181106111d2576111d2611db1565b60209081029190910181015160008181526006835260408082206001600160a01b038b1683528452908190208151606081018352815481526001820154948101949094526002015460ff16158015918401919091529092506112895760405162461bcd60e51b815260206004820152602a60248201527f436f6d706c6574656420636f75727365204e46542063616e6e6f7420626520746044820152691c985b9cd9995c9c995960b21b606482015260840161051e565b50505b6001016111a6565b505b6112a2848484846114b5565b50505050565b6001600160a01b0384163b1561098f5760405163f23a6e6160e01b81526001600160a01b0385169063f23a6e61906112ec9089908990889088908890600401611ed1565b6020604051808303816000875af1925050508015611327575060408051601f3d908101601f1916820190925261132491810190611f16565b60015b611390573d808015611355576040519150601f19603f3d011682016040523d82523d6000602084013e61135a565b606091505b50805160000361138857604051632bfa23e760e11b81526001600160a01b038616600482015260240161051e565b805181602001fd5b6001600160e01b0319811663f23a6e6160e01b1461113857604051632bfa23e760e11b81526001600160a01b038616600482015260240161051e565b6001600160a01b0384163b1561098f5760405163bc197c8160e01b81526001600160a01b0385169063bc197c81906114109089908990889088908890600401611f33565b6020604051808303816000875af192505050801561144b575060408051601f3d908101601f1916820190925261144891810190611f16565b60015b611479573d808015611355576040519150601f19603f3d011682016040523d82523d6000602084013e61135a565b6001600160e01b0319811663bc197c8160e01b1461113857604051632bfa23e760e11b81526001600160a01b038616600482015260240161051e565b80518251146114e45781518151604051635b05999160e01b81526004810192909252602482015260440161051e565b3360005b83518110156115ea576020818102858101820151908501909101516001600160a01b0388161561159b576000828152602081815260408083206001600160a01b038c16845290915290205481811015611574576040516303dee4c560e01b81526001600160a01b038a16600482015260248101829052604481018390526064810184905260840161051e565b6000838152602081815260408083206001600160a01b038d16845290915290209082900390555b6001600160a01b038716156115e0576000828152602081815260408083206001600160a01b038b168452909152812080548392906115da908490611f91565b90915550505b50506001016114e8565b50825160010361166b5760208301516000906020840151909150856001600160a01b0316876001600160a01b0316846001600160a01b03167fc3d58168c5ae7397731d063d5bbf3d657854427343f4c083240f7aacaa2d0f62858560405161165c929190918252602082015260400190565b60405180910390a45050610fc4565b836001600160a01b0316856001600160a01b0316826001600160a01b03167f4a39dc06d4c0dbc64b70af90fd698a233a518aa5d07e595d983b8c0526c8f7fb86866040516116ba929190611fa4565b60405180910390a45050505050565b80356001600160a01b03811681146116e057600080fd5b919050565b600080604083850312156116f857600080fd5b611701836116c9565b946020939093013593505050565b6001600160e01b031981168114610ed757600080fd5b60006020828403121561173757600080fd5b81356117428161170f565b9392505050565b60006020828403121561175b57600080fd5b611742826116c9565b60008060006060848603121561177957600080fd5b83359250611789602085016116c9565b929592945050506040919091013590565b6000602082840312156117ac57600080fd5b5035919050565b6000815180845260005b818110156117d9576020818501810151868301820152016117bd565b506000602082860101526020601f19601f83011685010191505092915050565b60208152600061174260208301846117b3565b6000806040838503121561181f57600080fd5b8235915061182f602084016116c9565b90509250929050565b60008060006060848603121561184d57600080fd5b611856846116c9565b95602085013595506040909401359392505050565b634e487b7160e01b600052604160045260246000fd5b604051601f8201601f191681016001600160401b03811182821017156118a9576118a961186b565b604052919050565b60006001600160401b038211156118ca576118ca61186b565b5060051b60200190565b600082601f8301126118e557600080fd5b81356118f86118f3826118b1565b611881565b8082825260208201915060208360051b86010192508583111561191a57600080fd5b602085015b8381101561193757803583526020928301920161191f565b5095945050505050565b600082601f83011261195257600080fd5b8135602083016000806001600160401b038411156119725761197261186b565b50601f8301601f191660200161198781611881565b91505082815285838301111561199c57600080fd5b82826020830137600092810160200192909252509392505050565b600080600080600060a086880312156119cf57600080fd5b6119d8866116c9565b94506119e6602087016116c9565b935060408601356001600160401b03811115611a0157600080fd5b611a0d888289016118d4565b93505060608601356001600160401b03811115611a2957600080fd5b611a35888289016118d4565b92505060808601356001600160401b03811115611a5157600080fd5b611a5d88828901611941565b9150509295509295909350565b60008060408385031215611a7d57600080fd5b82356001600160401b03811115611a9357600080fd5b8301601f81018513611aa457600080fd5b8035611ab26118f3826118b1565b8082825260208201915060208360051b850101925087831115611ad457600080fd5b6020840193505b82841015611afd57611aec846116c9565b825260209384019390910190611adb565b945050505060208301356001600160401b03811115611b1b57600080fd5b611b27858286016118d4565b9150509250929050565b600081518084526020840193506020830160005b82811015611b63578151865260209586019590910190600101611b45565b5093949350505050565b6020815260006117426020830184611b31565b60008060408385031215611b9357600080fd5b50508035926020909101359150565b6001600160a01b038616815260a060208201819052600090611bc6908301876117b3565b8281036040840152611bd881876117b3565b606084019590955250509015156080909101529392505050565b600080600080600060a08688031215611c0a57600080fd5b505083359560208501359550604085013594606081013594506080013592509050565b60008060408385031215611c4057600080fd5b611c49836116c9565b915060208301358015158114611c5e57600080fd5b809150509250929050565b60008060408385031215611c7c57600080fd5b82356001600160401b03811115611c9257600080fd5b611c9e85828601611941565b92505060208301356001600160401b03811115611cba57600080fd5b611b2785828601611941565b60008060408385031215611cd957600080fd5b611ce2836116c9565b915061182f602084016116c9565b600080600080600060a08688031215611d0857600080fd5b611d11866116c9565b9450611d1f602087016116c9565b9350604086013592506060860135915060808601356001600160401b03811115611a5157600080fd5b600181811c90821680611d5c57607f821691505b602082108103611d7c57634e487b7160e01b600052602260045260246000fd5b50919050565b634e487b7160e01b600052601160045260246000fd5b600060018201611daa57611daa611d82565b5060010190565b634e487b7160e01b600052603260045260246000fd5b601f821115611e0e57806000526020600020601f840160051c81016020851015611dee5750805b601f840160051c820191505b81811015610fc45760008155600101611dfa565b505050565b81516001600160401b03811115611e2c57611e2c61186b565b611e4081611e3a8454611d48565b84611dc7565b6020601f821160018114611e745760008315611e5c5750848201515b600019600385901b1c1916600184901b178455610fc4565b600084815260208120601f198516915b82811015611ea45787850151825560209485019460019092019101611e84565b5084821015611ec25786840151600019600387901b60f8161c191681555b50505050600190811b01905550565b6001600160a01b03868116825285166020820152604081018490526060810183905260a060808201819052600090611f0b908301846117b3565b979650505050505050565b600060208284031215611f2857600080fd5b81516117428161170f565b6001600160a01b0386811682528516602082015260a060408201819052600090611f5f90830186611b31565b8281036060840152611f718186611b31565b90508281036080840152611f8581856117b3565b98975050505050505050565b8082018082111561043c5761043c611d82565b604081526000611fb76040830185611b31565b8281036020840152611fc98185611b31565b9594505050505056fea26469706673582212207e4a6f3a43a4f2d653b4925a67708df36d1d84cae7c60556da0f46e423fa450a64736f6c634300081c003368747470733a2f2f796f75722d6d657461646174612d7572692f7b69647d2e6a736f6e","linkReferences":{}},"methodIdentifiers":{"addCourseBatch(uint256,uint256,uint256,uint256,uint256)":"973de566","auctionContract()":"0ab8afac","balanceOf(address,uint256)":"00fdd58e","balanceOfBatch(address[],uint256[])":"4e1273f4","batches(uint256,uint256)":"5d47964b","courses(uint256)":"96f979d2","createCourse(string,string)":"a26a7953","getNFTLevel(uint256,address)":"10fe8ede","isApprovedForAll(address,address)":"e985e9c5","mintForWinner(address,uint256,uint256)":"1af4e3e0","nftLevels(uint256,address)":"bab261f0","owner()":"8da5cb5b","renounceOwnership()":"715018a6","safeBatchTransferFrom(address,address,uint256[],uint256[],bytes)":"2eb2c2d6","safeTransferFrom(address,address,uint256,uint256,bytes)":"f242432a","setApprovalForAll(address,bool)":"a22cb465","setAuctionContract(address)":"023924c7","supportsInterface(bytes4)":"01ffc9a7","transferOwnership(address)":"f2fde38b","upgradeNFT(uint256,address,uint256)":"0c9c1843","uri(uint256)":"0e89341c"},"id":42}